{
    "abi": [
        {
            "type": "constructor",
            "inputs": [
                {
                    "name": "_mockWBTC",
                    "type": "address",
                    "internalType": "address"
                },
                {
                    "name": "_mockWETH",
                    "type": "address",
                    "internalType": "address"
                },
                {
                    "name": "_mockLINK",
                    "type": "address",
                    "internalType": "address"
                },
                {
                    "name": "_mockUSDC",
                    "type": "address",
                    "internalType": "address"
                }
            ],
            "stateMutability": "nonpayable"
        },
        {
            "type": "function",
            "name": "cooldownPeriod",
            "inputs": [],
            "outputs": [
                {
                    "name": "",
                    "type": "uint256",
                    "internalType": "uint256"
                }
            ],
            "stateMutability": "view"
        },
        {
            "type": "function",
            "name": "getCooldownRemaining",
            "inputs": [
                {
                    "name": "user",
                    "type": "address",
                    "internalType": "address"
                },
                {
                    "name": "tokenAddress",
                    "type": "address",
                    "internalType": "address"
                }
            ],
            "outputs": [
                {
                    "name": "",
                    "type": "uint256",
                    "internalType": "uint256"
                }
            ],
            "stateMutability": "view"
        },
        {
            "type": "function",
            "name": "getTokenAmount",
            "inputs": [
                {
                    "name": "tokenAddress",
                    "type": "address",
                    "internalType": "address"
                }
            ],
            "outputs": [
                {
                    "name": "",
                    "type": "uint256",
                    "internalType": "uint256"
                }
            ],
            "stateMutability": "view"
        },
        {
            "type": "function",
            "name": "lastRequestTime",
            "inputs": [
                {
                    "name": "",
                    "type": "address",
                    "internalType": "address"
                },
                {
                    "name": "",
                    "type": "address",
                    "internalType": "address"
                }
            ],
            "outputs": [
                {
                    "name": "",
                    "type": "uint256",
                    "internalType": "uint256"
                }
            ],
            "stateMutability": "view"
        },
        {
            "type": "function",
            "name": "linkAmount",
            "inputs": [],
            "outputs": [
                {
                    "name": "",
                    "type": "uint256",
                    "internalType": "uint256"
                }
            ],
            "stateMutability": "view"
        },
        {
            "type": "function",
            "name": "mockLINK",
            "inputs": [],
            "outputs": [
                {
                    "name": "",
                    "type": "address",
                    "internalType": "contract IERC20"
                }
            ],
            "stateMutability": "view"
        },
        {
            "type": "function",
            "name": "mockUSDC",
            "inputs": [],
            "outputs": [
                {
                    "name": "",
                    "type": "address",
                    "internalType": "contract IERC20"
                }
            ],
            "stateMutability": "view"
        },
        {
            "type": "function",
            "name": "mockWBTC",
            "inputs": [],
            "outputs": [
                {
                    "name": "",
                    "type": "address",
                    "internalType": "contract IERC20"
                }
            ],
            "stateMutability": "view"
        },
        {
            "type": "function",
            "name": "mockWETH",
            "inputs": [],
            "outputs": [
                {
                    "name": "",
                    "type": "address",
                    "internalType": "contract IERC20"
                }
            ],
            "stateMutability": "view"
        },
        {
            "type": "function",
            "name": "owner",
            "inputs": [],
            "outputs": [
                {
                    "name": "",
                    "type": "address",
                    "internalType": "address"
                }
            ],
            "stateMutability": "view"
        },
        {
            "type": "function",
            "name": "renounceOwnership",
            "inputs": [],
            "outputs": [],
            "stateMutability": "nonpayable"
        },
        {
            "type": "function",
            "name": "requestAllTokens",
            "inputs": [],
            "outputs": [],
            "stateMutability": "nonpayable"
        },
        {
            "type": "function",
            "name": "requestTokens",
            "inputs": [
                {
                    "name": "tokenAddress",
                    "type": "address",
                    "internalType": "address"
                }
            ],
            "outputs": [],
            "stateMutability": "nonpayable"
        },
        {
            "type": "function",
            "name": "transferOwnership",
            "inputs": [
                {
                    "name": "newOwner",
                    "type": "address",
                    "internalType": "address"
                }
            ],
            "outputs": [],
            "stateMutability": "nonpayable"
        },
        {
            "type": "function",
            "name": "updateCooldownPeriod",
            "inputs": [
                {
                    "name": "newCooldown",
                    "type": "uint256",
                    "internalType": "uint256"
                }
            ],
            "outputs": [],
            "stateMutability": "nonpayable"
        },
        {
            "type": "function",
            "name": "updateTokenAmount",
            "inputs": [
                {
                    "name": "tokenAddress",
                    "type": "address",
                    "internalType": "address"
                },
                {
                    "name": "newAmount",
                    "type": "uint256",
                    "internalType": "uint256"
                }
            ],
            "outputs": [],
            "stateMutability": "nonpayable"
        },
        {
            "type": "function",
            "name": "usdcAmount",
            "inputs": [],
            "outputs": [
                {
                    "name": "",
                    "type": "uint256",
                    "internalType": "uint256"
                }
            ],
            "stateMutability": "view"
        },
        {
            "type": "function",
            "name": "wbtcAmount",
            "inputs": [],
            "outputs": [
                {
                    "name": "",
                    "type": "uint256",
                    "internalType": "uint256"
                }
            ],
            "stateMutability": "view"
        },
        {
            "type": "function",
            "name": "wethAmount",
            "inputs": [],
            "outputs": [
                {
                    "name": "",
                    "type": "uint256",
                    "internalType": "uint256"
                }
            ],
            "stateMutability": "view"
        },
        {
            "type": "event",
            "name": "AmountUpdated",
            "inputs": [
                {
                    "name": "token",
                    "type": "address",
                    "indexed": true,
                    "internalType": "address"
                },
                {
                    "name": "newAmount",
                    "type": "uint256",
                    "indexed": false,
                    "internalType": "uint256"
                }
            ],
            "anonymous": false
        },
        {
            "type": "event",
            "name": "CooldownUpdated",
            "inputs": [
                {
                    "name": "newCooldown",
                    "type": "uint256",
                    "indexed": false,
                    "internalType": "uint256"
                }
            ],
            "anonymous": false
        },
        {
            "type": "event",
            "name": "FaucetRefilled",
            "inputs": [
                {
                    "name": "token",
                    "type": "address",
                    "indexed": true,
                    "internalType": "address"
                },
                {
                    "name": "amount",
                    "type": "uint256",
                    "indexed": false,
                    "internalType": "uint256"
                }
            ],
            "anonymous": false
        },
        {
            "type": "event",
            "name": "OwnershipTransferred",
            "inputs": [
                {
                    "name": "previousOwner",
                    "type": "address",
                    "indexed": true,
                    "internalType": "address"
                },
                {
                    "name": "newOwner",
                    "type": "address",
                    "indexed": true,
                    "internalType": "address"
                }
            ],
            "anonymous": false
        },
        {
            "type": "event",
            "name": "TokenDispensed",
            "inputs": [
                {
                    "name": "recipient",
                    "type": "address",
                    "indexed": true,
                    "internalType": "address"
                },
                {
                    "name": "token",
                    "type": "address",
                    "indexed": true,
                    "internalType": "address"
                },
                {
                    "name": "amount",
                    "type": "uint256",
                    "indexed": false,
                    "internalType": "uint256"
                }
            ],
            "anonymous": false
        },
        {
            "type": "error",
            "name": "OwnableInvalidOwner",
            "inputs": [
                {
                    "name": "owner",
                    "type": "address",
                    "internalType": "address"
                }
            ]
        },
        {
            "type": "error",
            "name": "OwnableUnauthorizedAccount",
            "inputs": [
                {
                    "name": "account",
                    "type": "address",
                    "internalType": "address"
                }
            ]
        }
    ],
    "bytecode": {
        "object": "0x6080604052629896806005556706f05b59d3b200006006556802b5e3af16b1880000600755631dcd6500600855611c2060095534801561003d575f5ffd5b5060405161255f38038061255f833981810160405281019061005f9190610308565b335f73ffffffffffffffffffffffffffffffffffffffff168173ffffffffffffffffffffffffffffffffffffffff16036100d0575f6040517f1e4fbdf70000000000000000000000000000000000000000000000000000000081526004016100c7919061037b565b60405180910390fd5b6100df816101e960201b60201c565b508360015f6101000a81548173ffffffffffffffffffffffffffffffffffffffff021916908373ffffffffffffffffffffffffffffffffffffffff1602179055508260025f6101000a81548173ffffffffffffffffffffffffffffffffffffffff021916908373ffffffffffffffffffffffffffffffffffffffff1602179055508160035f6101000a81548173ffffffffffffffffffffffffffffffffffffffff021916908373ffffffffffffffffffffffffffffffffffffffff1602179055508060045f6101000a81548173ffffffffffffffffffffffffffffffffffffffff021916908373ffffffffffffffffffffffffffffffffffffffff16021790555050505050610394565b5f5f5f9054906101000a900473ffffffffffffffffffffffffffffffffffffffff169050815f5f6101000a81548173ffffffffffffffffffffffffffffffffffffffff021916908373ffffffffffffffffffffffffffffffffffffffff1602179055508173ffffffffffffffffffffffffffffffffffffffff168173ffffffffffffffffffffffffffffffffffffffff167f8be0079c531659141344cd1fd0a4f28419497f9722a3daafe3b4186f6b6457e060405160405180910390a35050565b5f5ffd5b5f73ffffffffffffffffffffffffffffffffffffffff82169050919050565b5f6102d7826102ae565b9050919050565b6102e7816102cd565b81146102f1575f5ffd5b50565b5f81519050610302816102de565b92915050565b5f5f5f5f608085870312156103205761031f6102aa565b5b5f61032d878288016102f4565b945050602061033e878288016102f4565b935050604061034f878288016102f4565b9250506060610360878288016102f4565b91505092959194509250565b610375816102cd565b82525050565b5f60208201905061038e5f83018461036c565b92915050565b6121be806103a15f395ff3fe608060405234801561000f575f5ffd5b506004361061011f575f3560e01c80638da5cb5b116100ab578063ea21b0981161006f578063ea21b098146102ab578063ee467678146102c9578063f2fde38b146102e7578063f73eb2e014610303578063fc9afd67146103335761011f565b80638da5cb5b14610205578063a702efcc14610223578063cdaed48114610241578063e3d41dcc1461025d578063e6ae1a971461027b5761011f565b80633a9b9715116100f25780633a9b97151461019b5780633e1e5d67146101b9578063580f3904146101c3578063715018a6146101df578063861f6bfd146101e95761011f565b806304646a491461012357806314780d7f146101415780632d7574d61461015f57806331f50dd71461017d575b5f5ffd5b61012b610363565b6040516101389190611bf0565b60405180910390f35b610149610369565b6040516101569190611bf0565b60405180910390f35b61016761036f565b6040516101749190611bf0565b60405180910390f35b610185610375565b6040516101929190611c83565b60405180910390f35b6101a361039a565b6040516101b09190611c83565b60405180910390f35b6101c16103bf565b005b6101dd60048036038101906101d89190611cdb565b610a05565b005b6101e7611038565b005b61020360048036038101906101fe9190611d30565b61104b565b005b61020d611094565b60405161021a9190611d6a565b60405180910390f35b61022b6110bb565b6040516102389190611bf0565b60405180910390f35b61025b60048036038101906102569190611d83565b6110c1565b005b61026561142e565b6040516102729190611c83565b60405180910390f35b61029560048036038101906102909190611cdb565b611453565b6040516102a29190611bf0565b60405180910390f35b6102b3611769565b6040516102c09190611bf0565b60405180910390f35b6102d161176f565b6040516102de9190611c83565b60405180910390f35b61030160048036038101906102fc9190611cdb565b611794565b005b61031d60048036038101906103189190611dc1565b611818565b60405161032a9190611bf0565b60405180910390f35b61034d60048036038101906103489190611dc1565b611838565b60405161035a9190611bf0565b60405180910390f35b60095481565b60055481565b60065481565b60035f9054906101000a900473ffffffffffffffffffffffffffffffffffffffff1681565b60015f9054906101000a900473ffffffffffffffffffffffffffffffffffffffff1681565b5f600467ffffffffffffffff8111156103db576103da611dff565b5b6040519080825280602002602001820160405280156104095781602001602082028036833780820191505090505b50905060015f9054906101000a900473ffffffffffffffffffffffffffffffffffffffff16815f8151811061044157610440611e2c565b5b602002602001019073ffffffffffffffffffffffffffffffffffffffff16908173ffffffffffffffffffffffffffffffffffffffff168152505060025f9054906101000a900473ffffffffffffffffffffffffffffffffffffffff16816001815181106104b1576104b0611e2c565b5b602002602001019073ffffffffffffffffffffffffffffffffffffffff16908173ffffffffffffffffffffffffffffffffffffffff168152505060035f9054906101000a900473ffffffffffffffffffffffffffffffffffffffff168160028151811061052157610520611e2c565b5b602002602001019073ffffffffffffffffffffffffffffffffffffffff16908173ffffffffffffffffffffffffffffffffffffffff168152505060045f9054906101000a900473ffffffffffffffffffffffffffffffffffffffff168160038151811061059157610590611e2c565b5b602002602001019073ffffffffffffffffffffffffffffffffffffffff16908173ffffffffffffffffffffffffffffffffffffffff16815250505f5f90505b8151811015610a01575f8282815181106105ed576105ec611e2c565b5b60200260200101519050600954600a5f3373ffffffffffffffffffffffffffffffffffffffff1673ffffffffffffffffffffffffffffffffffffffff1681526020019081526020015f205f8373ffffffffffffffffffffffffffffffffffffffff1673ffffffffffffffffffffffffffffffffffffffff1681526020019081526020015f205461067d9190611e86565b42101561068a57506109f4565b5f5f82905060015f9054906101000a900473ffffffffffffffffffffffffffffffffffffffff1673ffffffffffffffffffffffffffffffffffffffff168373ffffffffffffffffffffffffffffffffffffffff16036106ed576005549150610806565b60025f9054906101000a900473ffffffffffffffffffffffffffffffffffffffff1673ffffffffffffffffffffffffffffffffffffffff168373ffffffffffffffffffffffffffffffffffffffff160361074b576006549150610805565b60035f9054906101000a900473ffffffffffffffffffffffffffffffffffffffff1673ffffffffffffffffffffffffffffffffffffffff168373ffffffffffffffffffffffffffffffffffffffff16036107a9576007549150610804565b60045f9054906101000a900473ffffffffffffffffffffffffffffffffffffffff1673ffffffffffffffffffffffffffffffffffffffff168373ffffffffffffffffffffffffffffffffffffffff16036108035760085491505b5b5b5b818173ffffffffffffffffffffffffffffffffffffffff166370a08231306040518263ffffffff1660e01b81526004016108409190611d6a565b602060405180830381865afa15801561085b573d5f5f3e3d5ffd5b505050506040513d601f19601f8201168201806040525081019061087f9190611ecd565b101561088d575050506109f4565b42600a5f3373ffffffffffffffffffffffffffffffffffffffff1673ffffffffffffffffffffffffffffffffffffffff1681526020019081526020015f205f8573ffffffffffffffffffffffffffffffffffffffff1673ffffffffffffffffffffffffffffffffffffffff1681526020019081526020015f20819055508073ffffffffffffffffffffffffffffffffffffffff1663a9059cbb33846040518363ffffffff1660e01b8152600401610945929190611ef8565b6020604051808303815f875af1158015610961573d5f5f3e3d5ffd5b505050506040513d601f19601f820116820180604052508101906109859190611f54565b156109f0578273ffffffffffffffffffffffffffffffffffffffff163373ffffffffffffffffffffffffffffffffffffffff167fee2d4dd7af707941d29694880d6bd8216d94d3b4250335bfec2f5ad98e6d4a91846040516109e79190611bf0565b60405180910390a35b5050505b80806001019150506105d0565b5050565b60015f9054906101000a900473ffffffffffffffffffffffffffffffffffffffff1673ffffffffffffffffffffffffffffffffffffffff168173ffffffffffffffffffffffffffffffffffffffff161480610aac575060025f9054906101000a900473ffffffffffffffffffffffffffffffffffffffff1673ffffffffffffffffffffffffffffffffffffffff168173ffffffffffffffffffffffffffffffffffffffff16145b80610b03575060035f9054906101000a900473ffffffffffffffffffffffffffffffffffffffff1673ffffffffffffffffffffffffffffffffffffffff168173ffffffffffffffffffffffffffffffffffffffff16145b80610b5a575060045f9054906101000a900473ffffffffffffffffffffffffffffffffffffffff1673ffffffffffffffffffffffffffffffffffffffff168173ffffffffffffffffffffffffffffffffffffffff16145b610b99576040517f08c379a0000000000000000000000000000000000000000000000000000000008152600401610b9090611fd9565b60405180910390fd5b600954600a5f3373ffffffffffffffffffffffffffffffffffffffff1673ffffffffffffffffffffffffffffffffffffffff1681526020019081526020015f205f8373ffffffffffffffffffffffffffffffffffffffff1673ffffffffffffffffffffffffffffffffffffffff1681526020019081526020015f205442610c209190611ff7565b1015610c61576040517f08c379a0000000000000000000000000000000000000000000000000000000008152600401610c589061209a565b60405180910390fd5b5f5f82905060015f9054906101000a900473ffffffffffffffffffffffffffffffffffffffff1673ffffffffffffffffffffffffffffffffffffffff168373ffffffffffffffffffffffffffffffffffffffff1603610cc4576005549150610ddd565b60025f9054906101000a900473ffffffffffffffffffffffffffffffffffffffff1673ffffffffffffffffffffffffffffffffffffffff168373ffffffffffffffffffffffffffffffffffffffff1603610d22576006549150610ddc565b60035f9054906101000a900473ffffffffffffffffffffffffffffffffffffffff1673ffffffffffffffffffffffffffffffffffffffff168373ffffffffffffffffffffffffffffffffffffffff1603610d80576007549150610ddb565b60045f9054906101000a900473ffffffffffffffffffffffffffffffffffffffff1673ffffffffffffffffffffffffffffffffffffffff168373ffffffffffffffffffffffffffffffffffffffff1603610dda5760085491505b5b5b5b818173ffffffffffffffffffffffffffffffffffffffff166370a08231306040518263ffffffff1660e01b8152600401610e179190611d6a565b602060405180830381865afa158015610e32573d5f5f3e3d5ffd5b505050506040513d601f19601f82011682018060405250810190610e569190611ecd565b1015610e97576040517f08c379a0000000000000000000000000000000000000000000000000000000008152600401610e8e90612102565b60405180910390fd5b42600a5f3373ffffffffffffffffffffffffffffffffffffffff1673ffffffffffffffffffffffffffffffffffffffff1681526020019081526020015f205f8573ffffffffffffffffffffffffffffffffffffffff1673ffffffffffffffffffffffffffffffffffffffff1681526020019081526020015f20819055508073ffffffffffffffffffffffffffffffffffffffff1663a9059cbb33846040518363ffffffff1660e01b8152600401610f4f929190611ef8565b6020604051808303815f875af1158015610f6b573d5f5f3e3d5ffd5b505050506040513d601f19601f82011682018060405250810190610f8f9190611f54565b610fce576040517f08c379a0000000000000000000000000000000000000000000000000000000008152600401610fc59061216a565b60405180910390fd5b8273ffffffffffffffffffffffffffffffffffffffff163373ffffffffffffffffffffffffffffffffffffffff167fee2d4dd7af707941d29694880d6bd8216d94d3b4250335bfec2f5ad98e6d4a918460405161102b9190611bf0565b60405180910390a3505050565b611040611a89565b6110495f611b10565b565b611053611a89565b806009819055507f583d8b24c5439ab7d810e51e37e8db41ba66f1168fd7b752ceae0c7681c5272c816040516110899190611bf0565b60405180910390a150565b5f5f5f9054906101000a900473ffffffffffffffffffffffffffffffffffffffff16905090565b60085481565b6110c9611a89565b60015f9054906101000a900473ffffffffffffffffffffffffffffffffffffffff1673ffffffffffffffffffffffffffffffffffffffff168273ffffffffffffffffffffffffffffffffffffffff161480611170575060025f9054906101000a900473ffffffffffffffffffffffffffffffffffffffff1673ffffffffffffffffffffffffffffffffffffffff168273ffffffffffffffffffffffffffffffffffffffff16145b806111c7575060035f9054906101000a900473ffffffffffffffffffffffffffffffffffffffff1673ffffffffffffffffffffffffffffffffffffffff168273ffffffffffffffffffffffffffffffffffffffff16145b8061121e575060045f9054906101000a900473ffffffffffffffffffffffffffffffffffffffff1673ffffffffffffffffffffffffffffffffffffffff168273ffffffffffffffffffffffffffffffffffffffff16145b61125d576040517f08c379a000000000000000000000000000000000000000000000000000000000815260040161125490611fd9565b60405180910390fd5b60015f9054906101000a900473ffffffffffffffffffffffffffffffffffffffff1673ffffffffffffffffffffffffffffffffffffffff168273ffffffffffffffffffffffffffffffffffffffff16036112bd57806005819055506113dc565b60025f9054906101000a900473ffffffffffffffffffffffffffffffffffffffff1673ffffffffffffffffffffffffffffffffffffffff168273ffffffffffffffffffffffffffffffffffffffff160361131d57806006819055506113db565b60035f9054906101000a900473ffffffffffffffffffffffffffffffffffffffff1673ffffffffffffffffffffffffffffffffffffffff168273ffffffffffffffffffffffffffffffffffffffff160361137d57806007819055506113da565b60045f9054906101000a900473ffffffffffffffffffffffffffffffffffffffff1673ffffffffffffffffffffffffffffffffffffffff168273ffffffffffffffffffffffffffffffffffffffff16036113d957806008819055505b5b5b5b8173ffffffffffffffffffffffffffffffffffffffff167f6533ed46d30ed94c4713db86f8916bc3937dc4ca984f7840727074e9d730461c826040516114229190611bf0565b60405180910390a25050565b60025f9054906101000a900473ffffffffffffffffffffffffffffffffffffffff1681565b5f60015f9054906101000a900473ffffffffffffffffffffffffffffffffffffffff1673ffffffffffffffffffffffffffffffffffffffff168273ffffffffffffffffffffffffffffffffffffffff1614806114fb575060025f9054906101000a900473ffffffffffffffffffffffffffffffffffffffff1673ffffffffffffffffffffffffffffffffffffffff168273ffffffffffffffffffffffffffffffffffffffff16145b80611552575060035f9054906101000a900473ffffffffffffffffffffffffffffffffffffffff1673ffffffffffffffffffffffffffffffffffffffff168273ffffffffffffffffffffffffffffffffffffffff16145b806115a9575060045f9054906101000a900473ffffffffffffffffffffffffffffffffffffffff1673ffffffffffffffffffffffffffffffffffffffff168273ffffffffffffffffffffffffffffffffffffffff16145b6115e8576040517f08c379a00000000000000000000000000000000000000000000000000000000081526004016115df90611fd9565b60405180910390fd5b60015f9054906101000a900473ffffffffffffffffffffffffffffffffffffffff1673ffffffffffffffffffffffffffffffffffffffff168273ffffffffffffffffffffffffffffffffffffffff1603611646576005549050611764565b60025f9054906101000a900473ffffffffffffffffffffffffffffffffffffffff1673ffffffffffffffffffffffffffffffffffffffff168273ffffffffffffffffffffffffffffffffffffffff16036116a4576006549050611764565b60035f9054906101000a900473ffffffffffffffffffffffffffffffffffffffff1673ffffffffffffffffffffffffffffffffffffffff168273ffffffffffffffffffffffffffffffffffffffff1603611702576007549050611764565b60045f9054906101000a900473ffffffffffffffffffffffffffffffffffffffff1673ffffffffffffffffffffffffffffffffffffffff168273ffffffffffffffffffffffffffffffffffffffff1603611760576008549050611764565b5f90505b919050565b60075481565b60045f9054906101000a900473ffffffffffffffffffffffffffffffffffffffff1681565b61179c611a89565b5f73ffffffffffffffffffffffffffffffffffffffff168173ffffffffffffffffffffffffffffffffffffffff160361180c575f6040517f1e4fbdf70000000000000000000000000000000000000000000000000000000081526004016118039190611d6a565b60405180910390fd5b61181581611b10565b50565b600a602052815f5260405f20602052805f5260405f205f91509150505481565b5f60015f9054906101000a900473ffffffffffffffffffffffffffffffffffffffff1673ffffffffffffffffffffffffffffffffffffffff168273ffffffffffffffffffffffffffffffffffffffff1614806118e0575060025f9054906101000a900473ffffffffffffffffffffffffffffffffffffffff1673ffffffffffffffffffffffffffffffffffffffff168273ffffffffffffffffffffffffffffffffffffffff16145b80611937575060035f9054906101000a900473ffffffffffffffffffffffffffffffffffffffff1673ffffffffffffffffffffffffffffffffffffffff168273ffffffffffffffffffffffffffffffffffffffff16145b8061198e575060045f9054906101000a900473ffffffffffffffffffffffffffffffffffffffff1673ffffffffffffffffffffffffffffffffffffffff168273ffffffffffffffffffffffffffffffffffffffff16145b6119cd576040517f08c379a00000000000000000000000000000000000000000000000000000000081526004016119c490611fd9565b60405180910390fd5b5f600a5f8573ffffffffffffffffffffffffffffffffffffffff1673ffffffffffffffffffffffffffffffffffffffff1681526020019081526020015f205f8473ffffffffffffffffffffffffffffffffffffffff1673ffffffffffffffffffffffffffffffffffffffff1681526020019081526020015f2054905060095481611a579190611e86565b4210611a66575f915050611a83565b4260095482611a759190611e86565b611a7f9190611ff7565b9150505b92915050565b611a91611bd1565b73ffffffffffffffffffffffffffffffffffffffff16611aaf611094565b73ffffffffffffffffffffffffffffffffffffffff1614611b0e57611ad2611bd1565b6040517f118cdaa7000000000000000000000000000000000000000000000000000000008152600401611b059190611d6a565b60405180910390fd5b565b5f5f5f9054906101000a900473ffffffffffffffffffffffffffffffffffffffff169050815f5f6101000a81548173ffffffffffffffffffffffffffffffffffffffff021916908373ffffffffffffffffffffffffffffffffffffffff1602179055508173ffffffffffffffffffffffffffffffffffffffff168173ffffffffffffffffffffffffffffffffffffffff167f8be0079c531659141344cd1fd0a4f28419497f9722a3daafe3b4186f6b6457e060405160405180910390a35050565b5f33905090565b5f819050919050565b611bea81611bd8565b82525050565b5f602082019050611c035f830184611be1565b92915050565b5f73ffffffffffffffffffffffffffffffffffffffff82169050919050565b5f819050919050565b5f611c4b611c46611c4184611c09565b611c28565b611c09565b9050919050565b5f611c5c82611c31565b9050919050565b5f611c6d82611c52565b9050919050565b611c7d81611c63565b82525050565b5f602082019050611c965f830184611c74565b92915050565b5f5ffd5b5f611caa82611c09565b9050919050565b611cba81611ca0565b8114611cc4575f5ffd5b50565b5f81359050611cd581611cb1565b92915050565b5f60208284031215611cf057611cef611c9c565b5b5f611cfd84828501611cc7565b91505092915050565b611d0f81611bd8565b8114611d19575f5ffd5b50565b5f81359050611d2a81611d06565b92915050565b5f60208284031215611d4557611d44611c9c565b5b5f611d5284828501611d1c565b91505092915050565b611d6481611ca0565b82525050565b5f602082019050611d7d5f830184611d5b565b92915050565b5f5f60408385031215611d9957611d98611c9c565b5b5f611da685828601611cc7565b9250506020611db785828601611d1c565b9150509250929050565b5f5f60408385031215611dd757611dd6611c9c565b5b5f611de485828601611cc7565b9250506020611df585828601611cc7565b9150509250929050565b7f4e487b71000000000000000000000000000000000000000000000000000000005f52604160045260245ffd5b7f4e487b71000000000000000000000000000000000000000000000000000000005f52603260045260245ffd5b7f4e487b71000000000000000000000000000000000000000000000000000000005f52601160045260245ffd5b5f611e9082611bd8565b9150611e9b83611bd8565b9250828201905080821115611eb357611eb2611e59565b5b92915050565b5f81519050611ec781611d06565b92915050565b5f60208284031215611ee257611ee1611c9c565b5b5f611eef84828501611eb9565b91505092915050565b5f604082019050611f0b5f830185611d5b565b611f186020830184611be1565b9392505050565b5f8115159050919050565b611f3381611f1f565b8114611f3d575f5ffd5b50565b5f81519050611f4e81611f2a565b92915050565b5f60208284031215611f6957611f68611c9c565b5b5f611f7684828501611f40565b91505092915050565b5f82825260208201905092915050565b7f556e737570706f7274656420746f6b656e0000000000000000000000000000005f82015250565b5f611fc3601183611f7f565b9150611fce82611f8f565b602082019050919050565b5f6020820190508181035f830152611ff081611fb7565b9050919050565b5f61200182611bd8565b915061200c83611bd8565b925082820390508181111561202457612023611e59565b5b92915050565b7f506c656173652077616974206265666f72652072657175657374696e672061675f8201527f61696e0000000000000000000000000000000000000000000000000000000000602082015250565b5f612084602383611f7f565b915061208f8261202a565b604082019050919050565b5f6020820190508181035f8301526120b181612078565b9050919050565b7f46617563657420697320656d70747920666f72207468697320746f6b656e00005f82015250565b5f6120ec601e83611f7f565b91506120f7826120b8565b602082019050919050565b5f6020820190508181035f830152612119816120e0565b9050919050565b7f546f6b656e207472616e73666572206661696c656400000000000000000000005f82015250565b5f612154601583611f7f565b915061215f82612120565b602082019050919050565b5f6020820190508181035f83015261218181612148565b905091905056fea264697066735822122010461b7854cd3e5fad3eb2077f1b552cc9e0feb047d1eac0980ea7464cfaf29e64736f6c634300081e0033",
        "linkReferences": {}
    },
    "methodIdentifiers": {
        "cooldownPeriod()": "04646a49",
        "getCooldownRemaining(address,address)": "fc9afd67",
        "getTokenAmount(address)": "e6ae1a97",
        "lastRequestTime(address,address)": "f73eb2e0",
        "linkAmount()": "ea21b098",
        "mockLINK()": "31f50dd7",
        "mockUSDC()": "ee467678",
        "mockWBTC()": "3a9b9715",
        "mockWETH()": "e3d41dcc",
        "owner()": "8da5cb5b",
        "renounceOwnership()": "715018a6",
        "requestAllTokens()": "3e1e5d67",
        "requestTokens(address)": "580f3904",
        "transferOwnership(address)": "f2fde38b",
        "updateCooldownPeriod(uint256)": "861f6bfd",
        "updateTokenAmount(address,uint256)": "cdaed481",
        "usdcAmount()": "a702efcc",
        "wbtcAmount()": "14780d7f",
        "wethAmount()": "2d7574d6"
    },
    "id": 6
}