{
    "abi": [
        {
            "type": "constructor",
            "inputs": [
                {
                    "name": "uniswapV3Quoter_",
                    "type": "address",
                    "internalType": "address"
                }
            ],
            "stateMutability": "nonpayable"
        },
        {
            "type": "function",
            "name": "fees",
            "inputs": [
                {
                    "name": "",
                    "type": "uint256",
                    "internalType": "uint256"
                }
            ],
            "outputs": [
                {
                    "name": "",
                    "type": "uint24",
                    "internalType": "uint24"
                }
            ],
            "stateMutability": "view"
        },
        {
            "type": "function",
            "name": "getAllPaths",
            "inputs": [
                {
                    "name": "tokenA",
                    "type": "address",
                    "internalType": "address"
                },
                {
                    "name": "tokenB",
                    "type": "address",
                    "internalType": "address"
                }
            ],
            "outputs": [
                {
                    "name": "paths",
                    "type": "bytes[]",
                    "internalType": "bytes[]"
                }
            ],
            "stateMutability": "view"
        },
        {
            "type": "function",
            "name": "quoteExactIn",
            "inputs": [
                {
                    "name": "tokenIn",
                    "type": "address",
                    "internalType": "address"
                },
                {
                    "name": "tokenOut",
                    "type": "address",
                    "internalType": "address"
                },
                {
                    "name": "amountIn",
                    "type": "uint256",
                    "internalType": "uint256"
                }
            ],
            "outputs": [
                {
                    "name": "path",
                    "type": "bytes",
                    "internalType": "bytes"
                },
                {
                    "name": "amountOut",
                    "type": "uint256",
                    "internalType": "uint256"
                }
            ],
            "stateMutability": "view"
        },
        {
            "type": "function",
            "name": "quoteExactOut",
            "inputs": [
                {
                    "name": "tokenIn",
                    "type": "address",
                    "internalType": "address"
                },
                {
                    "name": "tokenOut",
                    "type": "address",
                    "internalType": "address"
                },
                {
                    "name": "amountOut",
                    "type": "uint256",
                    "internalType": "uint256"
                }
            ],
            "outputs": [
                {
                    "name": "path",
                    "type": "bytes",
                    "internalType": "bytes"
                },
                {
                    "name": "amountIn",
                    "type": "uint256",
                    "internalType": "uint256"
                }
            ],
            "stateMutability": "view"
        },
        {
            "type": "function",
            "name": "quoteInvestWithToken",
            "inputs": [
                {
                    "name": "etf",
                    "type": "address",
                    "internalType": "address"
                },
                {
                    "name": "srcToken",
                    "type": "address",
                    "internalType": "address"
                },
                {
                    "name": "mintAmount",
                    "type": "uint256",
                    "internalType": "uint256"
                }
            ],
            "outputs": [
                {
                    "name": "srcAmount",
                    "type": "uint256",
                    "internalType": "uint256"
                },
                {
                    "name": "swapPaths",
                    "type": "bytes[]",
                    "internalType": "bytes[]"
                }
            ],
            "stateMutability": "view"
        },
        {
            "type": "function",
            "name": "quoteRedeemToToken",
            "inputs": [
                {
                    "name": "etf",
                    "type": "address",
                    "internalType": "address"
                },
                {
                    "name": "dstToken",
                    "type": "address",
                    "internalType": "address"
                },
                {
                    "name": "burnAmount",
                    "type": "uint256",
                    "internalType": "uint256"
                }
            ],
            "outputs": [
                {
                    "name": "dstAmount",
                    "type": "uint256",
                    "internalType": "uint256"
                },
                {
                    "name": "swapPaths",
                    "type": "bytes[]",
                    "internalType": "bytes[]"
                }
            ],
            "stateMutability": "view"
        },
        {
            "type": "function",
            "name": "uniswapV3Quoter",
            "inputs": [],
            "outputs": [
                {
                    "name": "",
                    "type": "address",
                    "internalType": "contract IUniswapV3Quoter"
                }
            ],
            "stateMutability": "view"
        },
        {
            "type": "error",
            "name": "SameTokens",
            "inputs": []
        }
    ],
    "bytecode": {
        "object": "0x60a060405234801561000f575f5ffd5b50604051611768380380611768833981810160405281019061003191906101ca565b8073ffffffffffffffffffffffffffffffffffffffff1660808173ffffffffffffffffffffffffffffffffffffffff16815250506040518060800160405280606461ffff1681526020016101f461ffff168152602001610bb861ffff16815260200161271061ffff168152505f9060046100ac9291906100b3565b50506101f5565b826004600901600a90048101928215610140579160200282015f5b8382111561010f57835183826101000a81548162ffffff021916908361ffff16021790555092602001926003016020816002010492830192600103026100ce565b801561013e5782816101000a81549062ffffff021916905560030160208160020104928301926001030261010f565b505b50905061014d9190610151565b5090565b5b80821115610168575f815f905550600101610152565b5090565b5f5ffd5b5f73ffffffffffffffffffffffffffffffffffffffff82169050919050565b5f61019982610170565b9050919050565b6101a98161018f565b81146101b3575f5ffd5b50565b5f815190506101c4816101a0565b92915050565b5f602082840312156101df576101de61016c565b5b5f6101ec848285016101b6565b91505092915050565b60805161154d61021b5f395f8181610468015281816105a6015261086f015261154d5ff3fe608060405234801561000f575f5ffd5b506004361061007b575f3560e01c80634d20d0f8116100595780634d20d0f8146101115780634d3d06d01461012f5780637020df9514610160578063d070166d146101915761007b565b80630816b4251461007f57806312be4fe0146100b05780634acc79ed146100e1575b5f5ffd5b61009960048036038101906100949190610b09565b6101c1565b6040516100a7929190610c93565b60405180910390f35b6100ca60048036038101906100c59190610b09565b610448565b6040516100d8929190610d09565b60405180910390f35b6100fb60048036038101906100f69190610d37565b610577565b6040516101089190610d7f565b60405180910390f35b6101196105a4565b6040516101269190610df3565b60405180910390f35b61014960048036038101906101449190610b09565b6105c8565b604051610157929190610c93565b60405180910390f35b61017a60048036038101906101759190610b09565b61084f565b604051610188929190610d09565b60405180910390f35b6101ab60048036038101906101a69190610e0c565b61097e565b6040516101b89190610e4a565b60405180910390f35b5f60605f8573ffffffffffffffffffffffffffffffffffffffff1663aa6ca8086040518163ffffffff1660e01b81526004015f60405180830381865afa15801561020d573d5f5f3e3d5ffd5b505050506040513d5f823e3d601f19601f820116820180604052508101906102359190610fbe565b90505f8673ffffffffffffffffffffffffffffffffffffffff1663ce7ddbef866040518263ffffffff1660e01b81526004016102719190611005565b5f60405180830381865afa15801561028b573d5f5f3e3d5ffd5b505050506040513d5f823e3d601f19601f820116820180604052508101906102b391906110f2565b9050815167ffffffffffffffff8111156102d0576102cf610e6e565b5b60405190808252806020026020018201604052801561030357816020015b60608152602001906001900390816102ee5790505b5092505f5f90505b825181101561043d578673ffffffffffffffffffffffffffffffffffffffff1683828151811061033e5761033d611139565b5b602002602001015173ffffffffffffffffffffffffffffffffffffffff16036103bb5781818151811061037457610373611139565b5b6020026020010151856103879190611193565b945060405180602001604052805f8152508482815181106103ab576103aa611139565b5b6020026020010181905250610430565b5f5f6103fc8584815181106103d3576103d2611139565b5b60200260200101518a8686815181106103ef576103ee611139565b5b6020026020010151610448565b91509150808761040c9190611193565b96508186848151811061042257610421611139565b5b602002602001018190525050505b808060010191505061030b565b505050935093915050565b60605f5f610456868661097e565b90505f5f90505b815181101561056d577f000000000000000000000000000000000000000000000000000000000000000073ffffffffffffffffffffffffffffffffffffffff1663cdca17538383815181106104b5576104b4611139565b5b6020026020010151876040518363ffffffff1660e01b81526004016104db929190610d09565b5f60405180830381865afa92505050801561051857506040513d5f823e3d601f19601f8201168201806040525081019061051591906113a9565b60015b15610560575f8411801561053557505f87148061053457508684115b5b1561055b578396508585815181106105505761054f611139565b5b602002602001015197505b505050505b808060010191505061045d565b5050935093915050565b5f8160048110610585575f80fd5b600a9182820401919006600302915054906101000a900462ffffff1681565b7f000000000000000000000000000000000000000000000000000000000000000081565b5f60605f8573ffffffffffffffffffffffffffffffffffffffff1663aa6ca8086040518163ffffffff1660e01b81526004015f60405180830381865afa158015610614573d5f5f3e3d5ffd5b505050506040513d5f823e3d601f19601f8201168201806040525081019061063c9190610fbe565b90505f8673ffffffffffffffffffffffffffffffffffffffff166305def347866040518263ffffffff1660e01b81526004016106789190611005565b5f60405180830381865afa158015610692573d5f5f3e3d5ffd5b505050506040513d5f823e3d601f19601f820116820180604052508101906106ba91906110f2565b9050815167ffffffffffffffff8111156106d7576106d6610e6e565b5b60405190808252806020026020018201604052801561070a57816020015b60608152602001906001900390816106f55790505b5092505f5f90505b8251811015610844578673ffffffffffffffffffffffffffffffffffffffff1683828151811061074557610744611139565b5b602002602001015173ffffffffffffffffffffffffffffffffffffffff16036107c25781818151811061077b5761077a611139565b5b60200260200101518561078e9190611193565b945060405180602001604052805f8152508482815181106107b2576107b1611139565b5b6020026020010181905250610837565b5f5f610803898685815181106107db576107da611139565b5b60200260200101518686815181106107f6576107f5611139565b5b602002602001015161084f565b9150915080876108139190611193565b96508186848151811061082957610828611139565b5b602002602001018190525050505b8080600101915050610712565b505050935093915050565b60605f5f61085d858761097e565b90505f5f90505b8151811015610974577f000000000000000000000000000000000000000000000000000000000000000073ffffffffffffffffffffffffffffffffffffffff16632f80bb1d8383815181106108bc576108bb611139565b5b6020026020010151876040518363ffffffff1660e01b81526004016108e2929190610d09565b5f60405180830381865afa92505050801561091f57506040513d5f823e3d601f19601f8201168201806040525081019061091c91906113a9565b60015b15610967575f8411801561093c57505f87148061093b57508684105b5b156109625783965085858151811061095757610956611139565b5b602002602001015197505b505050505b8080600101915050610864565b5050935093915050565b6060600467ffffffffffffffff81111561099b5761099a610e6e565b5b6040519080825280602002602001820160405280156109ce57816020015b60608152602001906001900390816109b95790505b5090505f5f90505b6004811015610a64578360601b5f82600481106109f6576109f5611139565b5b600a91828204019190066003029054906101000a900462ffffff1660e81b8460601b604051602001610a2a939291906114db565b604051602081830303815290604052828281518110610a4c57610a4b611139565b5b602002602001018190525080806001019150506109d6565b5092915050565b5f604051905090565b5f5ffd5b5f5ffd5b5f73ffffffffffffffffffffffffffffffffffffffff82169050919050565b5f610aa582610a7c565b9050919050565b610ab581610a9b565b8114610abf575f5ffd5b50565b5f81359050610ad081610aac565b92915050565b5f819050919050565b610ae881610ad6565b8114610af2575f5ffd5b50565b5f81359050610b0381610adf565b92915050565b5f5f5f60608486031215610b2057610b1f610a74565b5b5f610b2d86828701610ac2565b9350506020610b3e86828701610ac2565b9250506040610b4f86828701610af5565b9150509250925092565b610b6281610ad6565b82525050565b5f81519050919050565b5f82825260208201905092915050565b5f819050602082019050919050565b5f81519050919050565b5f82825260208201905092915050565b8281835e5f83830152505050565b5f601f19601f8301169050919050565b5f610bd382610b91565b610bdd8185610b9b565b9350610bed818560208601610bab565b610bf681610bb9565b840191505092915050565b5f610c0c8383610bc9565b905092915050565b5f602082019050919050565b5f610c2a82610b68565b610c348185610b72565b935083602082028501610c4685610b82565b805f5b85811015610c815784840389528151610c628582610c01565b9450610c6d83610c14565b925060208a01995050600181019050610c49565b50829750879550505050505092915050565b5f604082019050610ca65f830185610b59565b8181036020830152610cb88184610c20565b90509392505050565b5f82825260208201905092915050565b5f610cdb82610b91565b610ce58185610cc1565b9350610cf5818560208601610bab565b610cfe81610bb9565b840191505092915050565b5f6040820190508181035f830152610d218185610cd1565b9050610d306020830184610b59565b9392505050565b5f60208284031215610d4c57610d4b610a74565b5b5f610d5984828501610af5565b91505092915050565b5f62ffffff82169050919050565b610d7981610d62565b82525050565b5f602082019050610d925f830184610d70565b92915050565b5f819050919050565b5f610dbb610db6610db184610a7c565b610d98565b610a7c565b9050919050565b5f610dcc82610da1565b9050919050565b5f610ddd82610dc2565b9050919050565b610ded81610dd3565b82525050565b5f602082019050610e065f830184610de4565b92915050565b5f5f60408385031215610e2257610e21610a74565b5b5f610e2f85828601610ac2565b9250506020610e4085828601610ac2565b9150509250929050565b5f6020820190508181035f830152610e628184610c20565b905092915050565b5f5ffd5b7f4e487b71000000000000000000000000000000000000000000000000000000005f52604160045260245ffd5b610ea482610bb9565b810181811067ffffffffffffffff82111715610ec357610ec2610e6e565b5b80604052505050565b5f610ed5610a6b565b9050610ee18282610e9b565b919050565b5f67ffffffffffffffff821115610f0057610eff610e6e565b5b602082029050602081019050919050565b5f5ffd5b5f81519050610f2381610aac565b92915050565b5f610f3b610f3684610ee6565b610ecc565b90508083825260208201905060208402830185811115610f5e57610f5d610f11565b5b835b81811015610f875780610f738882610f15565b845260208401935050602081019050610f60565b5050509392505050565b5f82601f830112610fa557610fa4610e6a565b5b8151610fb5848260208601610f29565b91505092915050565b5f60208284031215610fd357610fd2610a74565b5b5f82015167ffffffffffffffff811115610ff057610fef610a78565b5b610ffc84828501610f91565b91505092915050565b5f6020820190506110185f830184610b59565b92915050565b5f67ffffffffffffffff82111561103857611037610e6e565b5b602082029050602081019050919050565b5f8151905061105781610adf565b92915050565b5f61106f61106a8461101e565b610ecc565b9050808382526020820190506020840283018581111561109257611091610f11565b5b835b818110156110bb57806110a78882611049565b845260208401935050602081019050611094565b5050509392505050565b5f82601f8301126110d9576110d8610e6a565b5b81516110e984826020860161105d565b91505092915050565b5f6020828403121561110757611106610a74565b5b5f82015167ffffffffffffffff81111561112457611123610a78565b5b611130848285016110c5565b91505092915050565b7f4e487b71000000000000000000000000000000000000000000000000000000005f52603260045260245ffd5b7f4e487b71000000000000000000000000000000000000000000000000000000005f52601160045260245ffd5b5f61119d82610ad6565b91506111a883610ad6565b92508282019050808211156111c0576111bf611166565b5b92915050565b5f67ffffffffffffffff8211156111e0576111df610e6e565b5b602082029050602081019050919050565b6111fa81610a7c565b8114611204575f5ffd5b50565b5f81519050611215816111f1565b92915050565b5f61122d611228846111c6565b610ecc565b905080838252602082019050602084028301858111156112505761124f610f11565b5b835b8181101561127957806112658882611207565b845260208401935050602081019050611252565b5050509392505050565b5f82601f83011261129757611296610e6a565b5b81516112a784826020860161121b565b91505092915050565b5f67ffffffffffffffff8211156112ca576112c9610e6e565b5b602082029050602081019050919050565b5f63ffffffff82169050919050565b6112f3816112db565b81146112fd575f5ffd5b50565b5f8151905061130e816112ea565b92915050565b5f611326611321846112b0565b610ecc565b9050808382526020820190506020840283018581111561134957611348610f11565b5b835b81811015611372578061135e8882611300565b84526020840193505060208101905061134b565b5050509392505050565b5f82601f8301126113905761138f610e6a565b5b81516113a0848260208601611314565b91505092915050565b5f5f5f5f608085870312156113c1576113c0610a74565b5b5f6113ce87828801611049565b945050602085015167ffffffffffffffff8111156113ef576113ee610a78565b5b6113fb87828801611283565b935050604085015167ffffffffffffffff81111561141c5761141b610a78565b5b6114288782880161137c565b925050606061143987828801611049565b91505092959194509250565b5f7fffffffffffffffffffffffffffffffffffffffff00000000000000000000000082169050919050565b5f819050919050565b61148a61148582611445565b611470565b82525050565b5f7fffffff000000000000000000000000000000000000000000000000000000000082169050919050565b5f819050919050565b6114d56114d082611490565b6114bb565b82525050565b5f6114e68286611479565b6014820191506114f682856114c4565b6003820191506115068284611479565b60148201915081905094935050505056fea2646970667358221220e93e2c20570f8c515801c124bbb16cae3ed30eef54572574dcac3379840373f364736f6c634300081e0033",
        "linkReferences": {}
    },
    "methodIdentifiers": {
        "fees(uint256)": "4acc79ed",
        "getAllPaths(address,address)": "d070166d",
        "quoteExactIn(address,address,uint256)": "12be4fe0",
        "quoteExactOut(address,address,uint256)": "7020df95",
        "quoteInvestWithToken(address,address,uint256)": "4d3d06d0",
        "quoteRedeemToToken(address,address,uint256)": "0816b425",
        "uniswapV3Quoter()": "4d20d0f8"
    },
    "id": 37
}