{
    "abi": [
        {
            "type": "constructor",
            "inputs": [
                {
                    "name": "miningToken_",
                    "type": "address",
                    "internalType": "address"
                },
                {
                    "name": "etfAddress_",
                    "type": "address",
                    "internalType": "address"
                },
                {
                    "name": "miningSpeedPerSecond_",
                    "type": "uint256",
                    "internalType": "uint256"
                }
            ],
            "stateMutability": "nonpayable"
        },
        {
            "type": "function",
            "name": "INDEX_SCALE",
            "inputs": [],
            "outputs": [
                {
                    "name": "",
                    "type": "uint256",
                    "internalType": "uint256"
                }
            ],
            "stateMutability": "view"
        },
        {
            "type": "function",
            "name": "claimReward",
            "inputs": [],
            "outputs": [],
            "stateMutability": "nonpayable"
        },
        {
            "type": "function",
            "name": "etfAddress",
            "inputs": [],
            "outputs": [
                {
                    "name": "",
                    "type": "address",
                    "internalType": "address"
                }
            ],
            "stateMutability": "view"
        },
        {
            "type": "function",
            "name": "getClaimableReward",
            "inputs": [
                {
                    "name": "supplier",
                    "type": "address",
                    "internalType": "address"
                }
            ],
            "outputs": [
                {
                    "name": "",
                    "type": "uint256",
                    "internalType": "uint256"
                }
            ],
            "stateMutability": "view"
        },
        {
            "type": "function",
            "name": "lastIndexUpdateTime",
            "inputs": [],
            "outputs": [
                {
                    "name": "",
                    "type": "uint256",
                    "internalType": "uint256"
                }
            ],
            "stateMutability": "view"
        },
        {
            "type": "function",
            "name": "miningLastIndex",
            "inputs": [],
            "outputs": [
                {
                    "name": "",
                    "type": "uint256",
                    "internalType": "uint256"
                }
            ],
            "stateMutability": "view"
        },
        {
            "type": "function",
            "name": "miningSpeedPerSecond",
            "inputs": [],
            "outputs": [
                {
                    "name": "",
                    "type": "uint256",
                    "internalType": "uint256"
                }
            ],
            "stateMutability": "view"
        },
        {
            "type": "function",
            "name": "miningToken",
            "inputs": [],
            "outputs": [
                {
                    "name": "",
                    "type": "address",
                    "internalType": "address"
                }
            ],
            "stateMutability": "view"
        },
        {
            "type": "function",
            "name": "stake",
            "inputs": [
                {
                    "name": "amount",
                    "type": "uint256",
                    "internalType": "uint256"
                }
            ],
            "outputs": [],
            "stateMutability": "nonpayable"
        },
        {
            "type": "function",
            "name": "stakedBalances",
            "inputs": [
                {
                    "name": "",
                    "type": "address",
                    "internalType": "address"
                }
            ],
            "outputs": [
                {
                    "name": "",
                    "type": "uint256",
                    "internalType": "uint256"
                }
            ],
            "stateMutability": "view"
        },
        {
            "type": "function",
            "name": "supplierLastIndex",
            "inputs": [
                {
                    "name": "",
                    "type": "address",
                    "internalType": "address"
                }
            ],
            "outputs": [
                {
                    "name": "",
                    "type": "uint256",
                    "internalType": "uint256"
                }
            ],
            "stateMutability": "view"
        },
        {
            "type": "function",
            "name": "supplierRewardAccrued",
            "inputs": [
                {
                    "name": "",
                    "type": "address",
                    "internalType": "address"
                }
            ],
            "outputs": [
                {
                    "name": "",
                    "type": "uint256",
                    "internalType": "uint256"
                }
            ],
            "stateMutability": "view"
        },
        {
            "type": "function",
            "name": "totalStaked",
            "inputs": [],
            "outputs": [
                {
                    "name": "",
                    "type": "uint256",
                    "internalType": "uint256"
                }
            ],
            "stateMutability": "view"
        },
        {
            "type": "function",
            "name": "unstake",
            "inputs": [
                {
                    "name": "amount",
                    "type": "uint256",
                    "internalType": "uint256"
                }
            ],
            "outputs": [],
            "stateMutability": "nonpayable"
        },
        {
            "type": "function",
            "name": "updateMiningSpeedPerSecond",
            "inputs": [
                {
                    "name": "speed",
                    "type": "uint256",
                    "internalType": "uint256"
                }
            ],
            "outputs": [],
            "stateMutability": "nonpayable"
        },
        {
            "type": "event",
            "name": "RewardClaimed",
            "inputs": [
                {
                    "name": "supplier",
                    "type": "address",
                    "indexed": true,
                    "internalType": "address"
                },
                {
                    "name": "claimedAmount",
                    "type": "uint256",
                    "indexed": false,
                    "internalType": "uint256"
                }
            ],
            "anonymous": false
        },
        {
            "type": "event",
            "name": "Staked",
            "inputs": [
                {
                    "name": "user",
                    "type": "address",
                    "indexed": true,
                    "internalType": "address"
                },
                {
                    "name": "amount",
                    "type": "uint256",
                    "indexed": false,
                    "internalType": "uint256"
                }
            ],
            "anonymous": false
        },
        {
            "type": "event",
            "name": "SupplierIndexUpdated",
            "inputs": [
                {
                    "name": "supplier",
                    "type": "address",
                    "indexed": true,
                    "internalType": "address"
                },
                {
                    "name": "deltaIndex",
                    "type": "uint256",
                    "indexed": false,
                    "internalType": "uint256"
                },
                {
                    "name": "lastIndex",
                    "type": "uint256",
                    "indexed": false,
                    "internalType": "uint256"
                }
            ],
            "anonymous": false
        },
        {
            "type": "event",
            "name": "Unstaked",
            "inputs": [
                {
                    "name": "user",
                    "type": "address",
                    "indexed": true,
                    "internalType": "address"
                },
                {
                    "name": "amount",
                    "type": "uint256",
                    "indexed": false,
                    "internalType": "uint256"
                }
            ],
            "anonymous": false
        },
        {
            "type": "error",
            "name": "NothingClaimable",
            "inputs": []
        },
        {
            "type": "error",
            "name": "SafeERC20FailedOperation",
            "inputs": [
                {
                    "name": "token",
                    "type": "address",
                    "internalType": "address"
                }
            ]
        }
    ],
    "bytecode": {
        "object": "0x608060405234801561000f575f5ffd5b506040516114b33803806114b38339818101604052810190610031919061016d565b825f5f6101000a81548173ffffffffffffffffffffffffffffffffffffffff021916908373ffffffffffffffffffffffffffffffffffffffff1602179055508160015f6101000a81548173ffffffffffffffffffffffffffffffffffffffff021916908373ffffffffffffffffffffffffffffffffffffffff160217905550806002819055506ec097ce7bc90715b34b9f1000000000600381905550426004819055505050506101bd565b5f5ffd5b5f73ffffffffffffffffffffffffffffffffffffffff82169050919050565b5f610109826100e0565b9050919050565b610119816100ff565b8114610123575f5ffd5b50565b5f8151905061013481610110565b92915050565b5f819050919050565b61014c8161013a565b8114610156575f5ffd5b50565b5f8151905061016781610143565b92915050565b5f5f5f60608486031215610184576101836100dc565b5b5f61019186828701610126565b93505060206101a286828701610126565b92505060406101b386828701610159565b9150509250925092565b6112e9806101ca5f395ff3fe608060405234801561000f575f5ffd5b50600436106100f3575f3560e01c8063742d2cf111610095578063aec1853111610064578063aec1853114610271578063b88a802f146102a1578063e8b508a8146102ab578063f0ccc03c146102c9576100f3565b8063742d2cf1146101e95780637ca0235614610219578063817b1cd214610237578063a694fc3a14610255576100f3565b80632e17de78116100d15780632e17de78146101635780632e238cac1461017f5780635ff329af1461019b57806369cf7ac3146101cb576100f3565b80630e7a0c22146100f75780631460fa871461011557806327776ab514610145575b5f5ffd5b6100ff6102e7565b60405161010c9190610f51565b60405180910390f35b61012f600480360381019061012a9190610fc8565b6102ed565b60405161013c9190610f51565b60405180910390f35b61014d610302565b60405161015a9190610f51565b60405180910390f35b61017d6004803603810190610178919061101d565b61030e565b005b6101996004803603810190610194919061101d565b6104e9565b005b6101b560048036038101906101b09190610fc8565b6104fb565b6040516101c29190610f51565b60405180910390f35b6101d361069e565b6040516101e09190611057565b60405180910390f35b61020360048036038101906101fe9190610fc8565b6106c2565b6040516102109190610f51565b60405180910390f35b6102216106d7565b60405161022e9190610f51565b60405180910390f35b61023f6106dd565b60405161024c9190610f51565b60405180910390f35b61026f600480360381019061026a919061101d565b6106e3565b005b61028b60048036038101906102869190610fc8565b610840565b6040516102989190610f51565b60405180910390f35b6102a9610855565b005b6102b36109c7565b6040516102c09190610f51565b60405180910390f35b6102d16109cd565b6040516102de9190611057565b60405180910390f35b60025481565b6007602052805f5260405f205f915090505481565b670de0b6b3a764000081565b5f8111610350576040517f08c379a0000000000000000000000000000000000000000000000000000000008152600401610347906110ca565b60405180910390fd5b8060075f3373ffffffffffffffffffffffffffffffffffffffff1673ffffffffffffffffffffffffffffffffffffffff1681526020019081526020015f205410156103d0576040517f08c379a00000000000000000000000000000000000000000000000000000000081526004016103c790611132565b60405180910390fd5b6103d86109f2565b6103e133610a7d565b8060075f3373ffffffffffffffffffffffffffffffffffffffff1673ffffffffffffffffffffffffffffffffffffffff1681526020019081526020015f205f82825461042d919061117d565b925050819055508060085f828254610445919061117d565b92505081905550610498338260015f9054906101000a900473ffffffffffffffffffffffffffffffffffffffff1673ffffffffffffffffffffffffffffffffffffffff16610c339092919063ffffffff16565b3373ffffffffffffffffffffffffffffffffffffffff167f0f5bb82176feb1b5e747e28471aa92156a04d9f3ab9f45f28e2d704232b93f75826040516104de9190610f51565b60405180910390a250565b6104f16109f2565b8060028190555050565b5f5f60065f8473ffffffffffffffffffffffffffffffffffffffff1673ffffffffffffffffffffffffffffffffffffffff1681526020019081526020015f205490505f60035490505f600854118015610555575060045442115b801561056257505f600254115b156105bd575f60045442610576919061117d565b90505f6002548261058791906111b0565b90505f6105a9670de0b6b3a764000060085484610c869092919063ffffffff16565b905080846105b791906111f1565b93505050505b5f60055f8673ffffffffffffffffffffffffffffffffffffffff1673ffffffffffffffffffffffffffffffffffffffff1681526020019081526020015f205490505f60075f8773ffffffffffffffffffffffffffffffffffffffff1673ffffffffffffffffffffffffffffffffffffffff1681526020019081526020015f205490505f5f8311801561064e57505f82115b1561069157828461065f919061117d565b90505f61067f82670de0b6b3a764000085610c869092919063ffffffff16565b9050808661068d91906111f1565b9550505b8495505050505050919050565b5f5f9054906101000a900473ffffffffffffffffffffffffffffffffffffffff1681565b6006602052805f5260405f205f915090505481565b60035481565b60085481565b5f8111610725576040517f08c379a000000000000000000000000000000000000000000000000000000000815260040161071c906110ca565b60405180910390fd5b61072d6109f2565b61073633610a7d565b8060075f3373ffffffffffffffffffffffffffffffffffffffff1673ffffffffffffffffffffffffffffffffffffffff1681526020019081526020015f205f82825461078291906111f1565b925050819055508060085f82825461079a91906111f1565b925050819055506107ef33308360015f9054906101000a900473ffffffffffffffffffffffffffffffffffffffff1673ffffffffffffffffffffffffffffffffffffffff16610e11909392919063ffffffff16565b3373ffffffffffffffffffffffffffffffffffffffff167f9e71bc8eea02a63969f509818f2dafb9254532904319f9dbda79b67bd34a5f3d826040516108359190610f51565b60405180910390a250565b6005602052805f5260405f205f915090505481565b61085d6109f2565b61086633610a7d565b5f60065f3373ffffffffffffffffffffffffffffffffffffffff1673ffffffffffffffffffffffffffffffffffffffff1681526020019081526020015f205490505f81116108e9576040517f08c379a00000000000000000000000000000000000000000000000000000000081526004016108e09061126e565b60405180910390fd5b5f60065f3373ffffffffffffffffffffffffffffffffffffffff1673ffffffffffffffffffffffffffffffffffffffff1681526020019081526020015f208190555061097633825f5f9054906101000a900473ffffffffffffffffffffffffffffffffffffffff1673ffffffffffffffffffffffffffffffffffffffff16610c339092919063ffffffff16565b3373ffffffffffffffffffffffffffffffffffffffff167f106f923f993c2149d49b4255ff723acafa1f2d94393f561d3eda32ae348f7241826040516109bc9190610f51565b60405180910390a250565b60045481565b60015f9054906101000a900473ffffffffffffffffffffffffffffffffffffffff1681565b5f60045442610a01919061117d565b90505f600854118015610a1357505f81115b8015610a2057505f600254115b15610a73575f60025482610a3491906111b0565b90505f610a56670de0b6b3a764000060085484610c869092919063ffffffff16565b90508060035f828254610a6991906111f1565b9250508190555050505b4260048190555050565b5f60055f8373ffffffffffffffffffffffffffffffffffffffff1673ffffffffffffffffffffffffffffffffffffffff1681526020019081526020015f205490505f60075f8473ffffffffffffffffffffffffffffffffffffffff1673ffffffffffffffffffffffffffffffffffffffff1681526020019081526020015f205490505f5f83118015610b0e57505f82115b15610b985782600354610b21919061117d565b90505f610b4182670de0b6b3a764000085610c869092919063ffffffff16565b90508060065f8773ffffffffffffffffffffffffffffffffffffffff1673ffffffffffffffffffffffffffffffffffffffff1681526020019081526020015f205f828254610b8f91906111f1565b92505081905550505b60035460055f8673ffffffffffffffffffffffffffffffffffffffff1673ffffffffffffffffffffffffffffffffffffffff1681526020019081526020015f20819055508373ffffffffffffffffffffffffffffffffffffffff167eb0bc9bc2b16d0aff934256c5e82ec00905851f54cc7b884d11e3eee69b4f1282600354604051610c2592919061128c565b60405180910390a250505050565b610c408383836001610e66565b610c8157826040517f5274afe7000000000000000000000000000000000000000000000000000000008152600401610c789190611057565b60405180910390fd5b505050565b5f5f5f5f198587098587029250828110838203039150505f8103610cbb575f8411610caf575f5ffd5b83820492505050610e0a565b808411610cc6575f5ffd5b5f8486880990508281118203915080830392505f855f038616905080860495508084049350600181825f03040190508083610d0191906111b0565b841793505f6002876003610d1591906111b0565b1890508087610d2491906111b0565b6002610d30919061117d565b81610d3b91906111b0565b90508087610d4991906111b0565b6002610d55919061117d565b81610d6091906111b0565b90508087610d6e91906111b0565b6002610d7a919061117d565b81610d8591906111b0565b90508087610d9391906111b0565b6002610d9f919061117d565b81610daa91906111b0565b90508087610db891906111b0565b6002610dc4919061117d565b81610dcf91906111b0565b90508087610ddd91906111b0565b6002610de9919061117d565b81610df491906111b0565b90508085610e0291906111b0565b955050505050505b9392505050565b610e1f848484846001610ec8565b610e6057836040517f5274afe7000000000000000000000000000000000000000000000000000000008152600401610e579190611057565b60405180910390fd5b50505050565b5f5f63a9059cbb60e01b9050604051815f525f1960601c86166004528460245260205f60445f5f8b5af1925060015f51148316610eba578383151615610eae573d5f823e3d81fd5b5f873b113d1516831692505b806040525050949350505050565b5f5f6323b872dd60e01b9050604051815f525f1960601c87166004525f1960601c86166024528460445260205f60645f5f8c5af1925060015f51148316610f26578383151615610f1a573d5f823e3d81fd5b5f883b113d1516831692505b806040525f606052505095945050505050565b5f819050919050565b610f4b81610f39565b82525050565b5f602082019050610f645f830184610f42565b92915050565b5f5ffd5b5f73ffffffffffffffffffffffffffffffffffffffff82169050919050565b5f610f9782610f6e565b9050919050565b610fa781610f8d565b8114610fb1575f5ffd5b50565b5f81359050610fc281610f9e565b92915050565b5f60208284031215610fdd57610fdc610f6a565b5b5f610fea84828501610fb4565b91505092915050565b610ffc81610f39565b8114611006575f5ffd5b50565b5f8135905061101781610ff3565b92915050565b5f6020828403121561103257611031610f6a565b5b5f61103f84828501611009565b91505092915050565b61105181610f8d565b82525050565b5f60208201905061106a5f830184611048565b92915050565b5f82825260208201905092915050565b7f416d6f756e74206d7573742062652067726561746572207468616e207a65726f5f82015250565b5f6110b4602083611070565b91506110bf82611080565b602082019050919050565b5f6020820190508181035f8301526110e1816110a8565b9050919050565b7f496e73756666696369656e74207374616b65642062616c616e636500000000005f82015250565b5f61111c601b83611070565b9150611127826110e8565b602082019050919050565b5f6020820190508181035f83015261114981611110565b9050919050565b7f4e487b71000000000000000000000000000000000000000000000000000000005f52601160045260245ffd5b5f61118782610f39565b915061119283610f39565b92508282039050818111156111aa576111a9611150565b5b92915050565b5f6111ba82610f39565b91506111c583610f39565b92508282026111d381610f39565b915082820484148315176111ea576111e9611150565b5b5092915050565b5f6111fb82610f39565b915061120683610f39565b925082820190508082111561121e5761121d611150565b5b92915050565b7f4e6f207265776172647320746f20636c61696d000000000000000000000000005f82015250565b5f611258601383611070565b915061126382611224565b602082019050919050565b5f6020820190508181035f8301526112858161124c565b9050919050565b5f60408201905061129f5f830185610f42565b6112ac6020830184610f42565b939250505056fea2646970667358221220f2f5151c3ba2238c9bdcf1b9e786ac4acbe132083036312784729e4c61b70fc264736f6c634300081e0033",
        "linkReferences": {}
    },
    "methodIdentifiers": {
        "INDEX_SCALE()": "27776ab5",
        "claimReward()": "b88a802f",
        "etfAddress()": "f0ccc03c",
        "getClaimableReward(address)": "5ff329af",
        "lastIndexUpdateTime()": "e8b508a8",
        "miningLastIndex()": "7ca02356",
        "miningSpeedPerSecond()": "0e7a0c22",
        "miningToken()": "69cf7ac3",
        "stake(uint256)": "a694fc3a",
        "stakedBalances(address)": "1460fa87",
        "supplierLastIndex(address)": "aec18531",
        "supplierRewardAccrued(address)": "742d2cf1",
        "totalStaked()": "817b1cd2",
        "unstake(uint256)": "2e17de78",
        "updateMiningSpeedPerSecond(uint256)": "2e238cac"
    },
    "id": 30
}