{
    "abi": [
        {
            "type": "constructor",
            "inputs": [
                {
                    "name": "name_",
                    "type": "string",
                    "internalType": "string"
                },
                {
                    "name": "symbol_",
                    "type": "string",
                    "internalType": "string"
                },
                {
                    "name": "tokens_",
                    "type": "address[]",
                    "internalType": "address[]"
                },
                {
                    "name": "initTokenAmountPerShare_",
                    "type": "uint256[]",
                    "internalType": "uint256[]"
                },
                {
                    "name": "minMintAmount_",
                    "type": "uint256",
                    "internalType": "uint256"
                },
                {
                    "name": "swapRouter_",
                    "type": "address",
                    "internalType": "address"
                }
            ],
            "stateMutability": "nonpayable"
        },
        {
            "type": "receive",
            "stateMutability": "payable"
        },
        {
            "type": "function",
            "name": "DEFAULT_POOL_FEE",
            "inputs": [],
            "outputs": [
                {
                    "name": "",
                    "type": "uint24",
                    "internalType": "uint24"
                }
            ],
            "stateMutability": "view"
        },
        {
            "type": "function",
            "name": "FEE_DENOMINATOR",
            "inputs": [],
            "outputs": [
                {
                    "name": "",
                    "type": "uint24",
                    "internalType": "uint24"
                }
            ],
            "stateMutability": "view"
        },
        {
            "type": "function",
            "name": "HUNDREd_PERCENT",
            "inputs": [],
            "outputs": [
                {
                    "name": "",
                    "type": "uint24",
                    "internalType": "uint24"
                }
            ],
            "stateMutability": "view"
        },
        {
            "type": "function",
            "name": "SLIPPAGE_TOLERANCE",
            "inputs": [],
            "outputs": [
                {
                    "name": "",
                    "type": "uint256",
                    "internalType": "uint256"
                }
            ],
            "stateMutability": "view"
        },
        {
            "type": "function",
            "name": "allowance",
            "inputs": [
                {
                    "name": "owner",
                    "type": "address",
                    "internalType": "address"
                },
                {
                    "name": "spender",
                    "type": "address",
                    "internalType": "address"
                }
            ],
            "outputs": [
                {
                    "name": "",
                    "type": "uint256",
                    "internalType": "uint256"
                }
            ],
            "stateMutability": "view"
        },
        {
            "type": "function",
            "name": "approve",
            "inputs": [
                {
                    "name": "spender",
                    "type": "address",
                    "internalType": "address"
                },
                {
                    "name": "value",
                    "type": "uint256",
                    "internalType": "uint256"
                }
            ],
            "outputs": [
                {
                    "name": "",
                    "type": "bool",
                    "internalType": "bool"
                }
            ],
            "stateMutability": "nonpayable"
        },
        {
            "type": "function",
            "name": "balanceOf",
            "inputs": [
                {
                    "name": "account",
                    "type": "address",
                    "internalType": "address"
                }
            ],
            "outputs": [
                {
                    "name": "",
                    "type": "uint256",
                    "internalType": "uint256"
                }
            ],
            "stateMutability": "view"
        },
        {
            "type": "function",
            "name": "decimals",
            "inputs": [],
            "outputs": [
                {
                    "name": "",
                    "type": "uint8",
                    "internalType": "uint8"
                }
            ],
            "stateMutability": "view"
        },
        {
            "type": "function",
            "name": "feeTo",
            "inputs": [],
            "outputs": [
                {
                    "name": "",
                    "type": "address",
                    "internalType": "address"
                }
            ],
            "stateMutability": "view"
        },
        {
            "type": "function",
            "name": "getInvestFee",
            "inputs": [],
            "outputs": [
                {
                    "name": "",
                    "type": "uint24",
                    "internalType": "uint24"
                }
            ],
            "stateMutability": "view"
        },
        {
            "type": "function",
            "name": "getInvestTokenAmounts",
            "inputs": [
                {
                    "name": "mintAmount",
                    "type": "uint256",
                    "internalType": "uint256"
                }
            ],
            "outputs": [
                {
                    "name": "tokenAmounts",
                    "type": "uint256[]",
                    "internalType": "uint256[]"
                }
            ],
            "stateMutability": "view"
        },
        {
            "type": "function",
            "name": "getMinMintAmount",
            "inputs": [],
            "outputs": [
                {
                    "name": "",
                    "type": "uint256",
                    "internalType": "uint256"
                }
            ],
            "stateMutability": "view"
        },
        {
            "type": "function",
            "name": "getRedeemFee",
            "inputs": [],
            "outputs": [
                {
                    "name": "",
                    "type": "uint24",
                    "internalType": "uint24"
                }
            ],
            "stateMutability": "view"
        },
        {
            "type": "function",
            "name": "getRedeemTokenAmounts",
            "inputs": [
                {
                    "name": "burnAmount",
                    "type": "uint256",
                    "internalType": "uint256"
                }
            ],
            "outputs": [
                {
                    "name": "tokenAmounts",
                    "type": "uint256[]",
                    "internalType": "uint256[]"
                }
            ],
            "stateMutability": "view"
        },
        {
            "type": "function",
            "name": "getToken",
            "inputs": [
                {
                    "name": "index",
                    "type": "uint256",
                    "internalType": "uint256"
                }
            ],
            "outputs": [
                {
                    "name": "",
                    "type": "address",
                    "internalType": "address"
                }
            ],
            "stateMutability": "view"
        },
        {
            "type": "function",
            "name": "getTokenCount",
            "inputs": [],
            "outputs": [
                {
                    "name": "",
                    "type": "uint256",
                    "internalType": "uint256"
                }
            ],
            "stateMutability": "view"
        },
        {
            "type": "function",
            "name": "getTokens",
            "inputs": [],
            "outputs": [
                {
                    "name": "",
                    "type": "address[]",
                    "internalType": "address[]"
                }
            ],
            "stateMutability": "view"
        },
        {
            "type": "function",
            "name": "investWithToken",
            "inputs": [
                {
                    "name": "srcToken",
                    "type": "address",
                    "internalType": "address"
                },
                {
                    "name": "to",
                    "type": "address",
                    "internalType": "address"
                },
                {
                    "name": "mintAmount",
                    "type": "uint256",
                    "internalType": "uint256"
                },
                {
                    "name": "maxSrcTokenAmount",
                    "type": "uint256",
                    "internalType": "uint256"
                },
                {
                    "name": "swapPaths",
                    "type": "bytes[]",
                    "internalType": "bytes[]"
                }
            ],
            "outputs": [],
            "stateMutability": "nonpayable"
        },
        {
            "type": "function",
            "name": "name",
            "inputs": [],
            "outputs": [
                {
                    "name": "",
                    "type": "string",
                    "internalType": "string"
                }
            ],
            "stateMutability": "view"
        },
        {
            "type": "function",
            "name": "owner",
            "inputs": [],
            "outputs": [
                {
                    "name": "",
                    "type": "address",
                    "internalType": "address"
                }
            ],
            "stateMutability": "view"
        },
        {
            "type": "function",
            "name": "redeemToToken",
            "inputs": [
                {
                    "name": "dstToken",
                    "type": "address",
                    "internalType": "address"
                },
                {
                    "name": "to",
                    "type": "address",
                    "internalType": "address"
                },
                {
                    "name": "burnAmount",
                    "type": "uint256",
                    "internalType": "uint256"
                },
                {
                    "name": "minDstTokenAmount",
                    "type": "uint256",
                    "internalType": "uint256"
                },
                {
                    "name": "swapPaths",
                    "type": "bytes[]",
                    "internalType": "bytes[]"
                }
            ],
            "outputs": [],
            "stateMutability": "nonpayable"
        },
        {
            "type": "function",
            "name": "renounceOwnership",
            "inputs": [],
            "outputs": [],
            "stateMutability": "nonpayable"
        },
        {
            "type": "function",
            "name": "setFee",
            "inputs": [
                {
                    "name": "feeTo_",
                    "type": "address",
                    "internalType": "address"
                },
                {
                    "name": "investFee_",
                    "type": "uint24",
                    "internalType": "uint24"
                },
                {
                    "name": "redeemFee_",
                    "type": "uint24",
                    "internalType": "uint24"
                }
            ],
            "outputs": [],
            "stateMutability": "nonpayable"
        },
        {
            "type": "function",
            "name": "swapRouter",
            "inputs": [],
            "outputs": [
                {
                    "name": "",
                    "type": "address",
                    "internalType": "address"
                }
            ],
            "stateMutability": "view"
        },
        {
            "type": "function",
            "name": "symbol",
            "inputs": [],
            "outputs": [
                {
                    "name": "",
                    "type": "string",
                    "internalType": "string"
                }
            ],
            "stateMutability": "view"
        },
        {
            "type": "function",
            "name": "totalSupply",
            "inputs": [],
            "outputs": [
                {
                    "name": "",
                    "type": "uint256",
                    "internalType": "uint256"
                }
            ],
            "stateMutability": "view"
        },
        {
            "type": "function",
            "name": "transfer",
            "inputs": [
                {
                    "name": "to",
                    "type": "address",
                    "internalType": "address"
                },
                {
                    "name": "value",
                    "type": "uint256",
                    "internalType": "uint256"
                }
            ],
            "outputs": [
                {
                    "name": "",
                    "type": "bool",
                    "internalType": "bool"
                }
            ],
            "stateMutability": "nonpayable"
        },
        {
            "type": "function",
            "name": "transferFrom",
            "inputs": [
                {
                    "name": "from",
                    "type": "address",
                    "internalType": "address"
                },
                {
                    "name": "to",
                    "type": "address",
                    "internalType": "address"
                },
                {
                    "name": "value",
                    "type": "uint256",
                    "internalType": "uint256"
                }
            ],
            "outputs": [
                {
                    "name": "",
                    "type": "bool",
                    "internalType": "bool"
                }
            ],
            "stateMutability": "nonpayable"
        },
        {
            "type": "function",
            "name": "transferOwnership",
            "inputs": [
                {
                    "name": "newOwner",
                    "type": "address",
                    "internalType": "address"
                }
            ],
            "outputs": [],
            "stateMutability": "nonpayable"
        },
        {
            "type": "function",
            "name": "updateMinMintAmount",
            "inputs": [
                {
                    "name": "newMinMintAmount",
                    "type": "uint256",
                    "internalType": "uint256"
                }
            ],
            "outputs": [],
            "stateMutability": "nonpayable"
        },
        {
            "type": "event",
            "name": "Approval",
            "inputs": [
                {
                    "name": "owner",
                    "type": "address",
                    "indexed": true,
                    "internalType": "address"
                },
                {
                    "name": "spender",
                    "type": "address",
                    "indexed": true,
                    "internalType": "address"
                },
                {
                    "name": "value",
                    "type": "uint256",
                    "indexed": false,
                    "internalType": "uint256"
                }
            ],
            "anonymous": false
        },
        {
            "type": "event",
            "name": "InvestedWithETH",
            "inputs": [
                {
                    "name": "to",
                    "type": "address",
                    "indexed": false,
                    "internalType": "address"
                },
                {
                    "name": "mintAmount",
                    "type": "uint256",
                    "indexed": false,
                    "internalType": "uint256"
                },
                {
                    "name": "paidAmount",
                    "type": "uint256",
                    "indexed": false,
                    "internalType": "uint256"
                }
            ],
            "anonymous": false
        },
        {
            "type": "event",
            "name": "InvestedWithToken",
            "inputs": [
                {
                    "name": "srcToken",
                    "type": "address",
                    "indexed": true,
                    "internalType": "address"
                },
                {
                    "name": "to",
                    "type": "address",
                    "indexed": false,
                    "internalType": "address"
                },
                {
                    "name": "mintAmount",
                    "type": "uint256",
                    "indexed": false,
                    "internalType": "uint256"
                },
                {
                    "name": "totalPaid",
                    "type": "uint256",
                    "indexed": false,
                    "internalType": "uint256"
                }
            ],
            "anonymous": false
        },
        {
            "type": "event",
            "name": "OwnershipTransferred",
            "inputs": [
                {
                    "name": "previousOwner",
                    "type": "address",
                    "indexed": true,
                    "internalType": "address"
                },
                {
                    "name": "newOwner",
                    "type": "address",
                    "indexed": true,
                    "internalType": "address"
                }
            ],
            "anonymous": false
        },
        {
            "type": "event",
            "name": "RedeemedToETH",
            "inputs": [
                {
                    "name": "to",
                    "type": "address",
                    "indexed": false,
                    "internalType": "address"
                },
                {
                    "name": "burnAmount",
                    "type": "uint256",
                    "indexed": false,
                    "internalType": "uint256"
                },
                {
                    "name": "receivedAmount",
                    "type": "uint256",
                    "indexed": false,
                    "internalType": "uint256"
                }
            ],
            "anonymous": false
        },
        {
            "type": "event",
            "name": "RedeemedToToken",
            "inputs": [
                {
                    "name": "dstToken",
                    "type": "address",
                    "indexed": true,
                    "internalType": "address"
                },
                {
                    "name": "to",
                    "type": "address",
                    "indexed": false,
                    "internalType": "address"
                },
                {
                    "name": "burnAmount",
                    "type": "uint256",
                    "indexed": false,
                    "internalType": "uint256"
                },
                {
                    "name": "receivedAmount",
                    "type": "uint256",
                    "indexed": false,
                    "internalType": "uint256"
                }
            ],
            "anonymous": false
        },
        {
            "type": "event",
            "name": "Transfer",
            "inputs": [
                {
                    "name": "from",
                    "type": "address",
                    "indexed": true,
                    "internalType": "address"
                },
                {
                    "name": "to",
                    "type": "address",
                    "indexed": true,
                    "internalType": "address"
                },
                {
                    "name": "value",
                    "type": "uint256",
                    "indexed": false,
                    "internalType": "uint256"
                }
            ],
            "anonymous": false
        },
        {
            "type": "error",
            "name": "ERC20InsufficientAllowance",
            "inputs": [
                {
                    "name": "spender",
                    "type": "address",
                    "internalType": "address"
                },
                {
                    "name": "allowance",
                    "type": "uint256",
                    "internalType": "uint256"
                },
                {
                    "name": "needed",
                    "type": "uint256",
                    "internalType": "uint256"
                }
            ]
        },
        {
            "type": "error",
            "name": "ERC20InsufficientBalance",
            "inputs": [
                {
                    "name": "sender",
                    "type": "address",
                    "internalType": "address"
                },
                {
                    "name": "balance",
                    "type": "uint256",
                    "internalType": "uint256"
                },
                {
                    "name": "needed",
                    "type": "uint256",
                    "internalType": "uint256"
                }
            ]
        },
        {
            "type": "error",
            "name": "ERC20InvalidApprover",
            "inputs": [
                {
                    "name": "approver",
                    "type": "address",
                    "internalType": "address"
                }
            ]
        },
        {
            "type": "error",
            "name": "ERC20InvalidReceiver",
            "inputs": [
                {
                    "name": "receiver",
                    "type": "address",
                    "internalType": "address"
                }
            ]
        },
        {
            "type": "error",
            "name": "ERC20InvalidSender",
            "inputs": [
                {
                    "name": "sender",
                    "type": "address",
                    "internalType": "address"
                }
            ]
        },
        {
            "type": "error",
            "name": "ERC20InvalidSpender",
            "inputs": [
                {
                    "name": "spender",
                    "type": "address",
                    "internalType": "address"
                }
            ]
        },
        {
            "type": "error",
            "name": "InvalidArrayLength",
            "inputs": []
        },
        {
            "type": "error",
            "name": "InvalidSwapPath",
            "inputs": [
                {
                    "name": "swapPath",
                    "type": "bytes",
                    "internalType": "bytes"
                }
            ]
        },
        {
            "type": "error",
            "name": "LessThanMinMintAmount",
            "inputs": []
        },
        {
            "type": "error",
            "name": "OverSlippage",
            "inputs": []
        },
        {
            "type": "error",
            "name": "OwnableInvalidOwner",
            "inputs": [
                {
                    "name": "owner",
                    "type": "address",
                    "internalType": "address"
                }
            ]
        },
        {
            "type": "error",
            "name": "OwnableUnauthorizedAccount",
            "inputs": [
                {
                    "name": "account",
                    "type": "address",
                    "internalType": "address"
                }
            ]
        },
        {
            "type": "error",
            "name": "SafeERC20FailedOperation",
            "inputs": [
                {
                    "name": "token",
                    "type": "address",
                    "internalType": "address"
                }
            ]
        },
        {
            "type": "error",
            "name": "SafeTransferETHFailed",
            "inputs": []
        },
        {
            "type": "error",
            "name": "TokenExists",
            "inputs": []
        },
        {
            "type": "error",
            "name": "TokenNotFound",
            "inputs": []
        }
    ],
    "bytecode": {
        "object": "0x60a060405234801561000f575f5ffd5b506040516145c53803806145c5833981810160405281019061003191906107f2565b33868681600390816100439190610af2565b5080600490816100539190610af2565b5050505f73ffffffffffffffffffffffffffffffffffffffff168173ffffffffffffffffffffffffffffffffffffffff16036100c6575f6040517f1e4fbdf70000000000000000000000000000000000000000000000000000000081526004016100bd9190610bd0565b60405180910390fd5b6100d5816102e460201b60201c565b505f845111610119576040517f08c379a000000000000000000000000000000000000000000000000000000000815260040161011090610c43565b60405180910390fd5b825184511461015d576040517f08c379a000000000000000000000000000000000000000000000000000000000815260040161015490610cab565b60405180910390fd5b8073ffffffffffffffffffffffffffffffffffffffff1660808173ffffffffffffffffffffffffffffffffffffffff168152505083600890805190602001906101a79291906103a7565b5082600a90805190602001906101be92919061042e565b50816007819055505f5f90505b84518110156102d8575f73ffffffffffffffffffffffffffffffffffffffff168582815181106101fe576101fd610cc9565b5b602002602001015173ffffffffffffffffffffffffffffffffffffffff160361025c576040517f08c379a000000000000000000000000000000000000000000000000000000000815260040161025390610d40565b60405180910390fd5b600160095f87848151811061027457610273610cc9565b5b602002602001015173ffffffffffffffffffffffffffffffffffffffff1673ffffffffffffffffffffffffffffffffffffffff1681526020019081526020015f205f6101000a81548160ff02191690831515021790555080806001019150506101cb565b50505050505050610d5e565b5f60055f9054906101000a900473ffffffffffffffffffffffffffffffffffffffff1690508160055f6101000a81548173ffffffffffffffffffffffffffffffffffffffff021916908373ffffffffffffffffffffffffffffffffffffffff1602179055508173ffffffffffffffffffffffffffffffffffffffff168173ffffffffffffffffffffffffffffffffffffffff167f8be0079c531659141344cd1fd0a4f28419497f9722a3daafe3b4186f6b6457e060405160405180910390a35050565b828054828255905f5260205f2090810192821561041d579160200282015b8281111561041c578251825f6101000a81548173ffffffffffffffffffffffffffffffffffffffff021916908373ffffffffffffffffffffffffffffffffffffffff160217905550916020019190600101906103c5565b5b50905061042a9190610479565b5090565b828054828255905f5260205f20908101928215610468579160200282015b8281111561046757825182559160200191906001019061044c565b5b5090506104759190610479565b5090565b5b80821115610490575f815f90555060010161047a565b5090565b5f604051905090565b5f5ffd5b5f5ffd5b5f5ffd5b5f5ffd5b5f601f19601f8301169050919050565b7f4e487b71000000000000000000000000000000000000000000000000000000005f52604160045260245ffd5b6104f3826104ad565b810181811067ffffffffffffffff82111715610512576105116104bd565b5b80604052505050565b5f610524610494565b905061053082826104ea565b919050565b5f67ffffffffffffffff82111561054f5761054e6104bd565b5b610558826104ad565b9050602081019050919050565b8281835e5f83830152505050565b5f61058561058084610535565b61051b565b9050828152602081018484840111156105a1576105a06104a9565b5b6105ac848285610565565b509392505050565b5f82601f8301126105c8576105c76104a5565b5b81516105d8848260208601610573565b91505092915050565b5f67ffffffffffffffff8211156105fb576105fa6104bd565b5b602082029050602081019050919050565b5f5ffd5b5f73ffffffffffffffffffffffffffffffffffffffff82169050919050565b5f61063982610610565b9050919050565b6106498161062f565b8114610653575f5ffd5b50565b5f8151905061066481610640565b92915050565b5f61067c610677846105e1565b61051b565b9050808382526020820190506020840283018581111561069f5761069e61060c565b5b835b818110156106c857806106b48882610656565b8452602084019350506020810190506106a1565b5050509392505050565b5f82601f8301126106e6576106e56104a5565b5b81516106f684826020860161066a565b91505092915050565b5f67ffffffffffffffff821115610719576107186104bd565b5b602082029050602081019050919050565b5f819050919050565b61073c8161072a565b8114610746575f5ffd5b50565b5f8151905061075781610733565b92915050565b5f61076f61076a846106ff565b61051b565b905080838252602082019050602084028301858111156107925761079161060c565b5b835b818110156107bb57806107a78882610749565b845260208401935050602081019050610794565b5050509392505050565b5f82601f8301126107d9576107d86104a5565b5b81516107e984826020860161075d565b91505092915050565b5f5f5f5f5f5f60c0878903121561080c5761080b61049d565b5b5f87015167ffffffffffffffff811115610829576108286104a1565b5b61083589828a016105b4565b965050602087015167ffffffffffffffff811115610856576108556104a1565b5b61086289828a016105b4565b955050604087015167ffffffffffffffff811115610883576108826104a1565b5b61088f89828a016106d2565b945050606087015167ffffffffffffffff8111156108b0576108af6104a1565b5b6108bc89828a016107c5565b93505060806108cd89828a01610749565b92505060a06108de89828a01610656565b9150509295509295509295565b5f81519050919050565b7f4e487b71000000000000000000000000000000000000000000000000000000005f52602260045260245ffd5b5f600282049050600182168061093957607f821691505b60208210810361094c5761094b6108f5565b5b50919050565b5f819050815f5260205f209050919050565b5f6020601f8301049050919050565b5f82821b905092915050565b5f600883026109ae7fffffffffffffffffffffffffffffffffffffffffffffffffffffffffffffffff82610973565b6109b88683610973565b95508019841693508086168417925050509392505050565b5f819050919050565b5f6109f36109ee6109e98461072a565b6109d0565b61072a565b9050919050565b5f819050919050565b610a0c836109d9565b610a20610a18826109fa565b84845461097f565b825550505050565b5f5f905090565b610a37610a28565b610a42818484610a03565b505050565b5b81811015610a6557610a5a5f82610a2f565b600181019050610a48565b5050565b601f821115610aaa57610a7b81610952565b610a8484610964565b81016020851015610a93578190505b610aa7610a9f85610964565b830182610a47565b50505b505050565b5f82821c905092915050565b5f610aca5f1984600802610aaf565b1980831691505092915050565b5f610ae28383610abb565b9150826002028217905092915050565b610afb826108eb565b67ffffffffffffffff811115610b1457610b136104bd565b5b610b1e8254610922565b610b29828285610a69565b5f60209050601f831160018114610b5a575f8415610b48578287015190505b610b528582610ad7565b865550610bb9565b601f198416610b6886610952565b5f5b82811015610b8f57848901518255600182019150602085019450602081019050610b6a565b86831015610bac5784890151610ba8601f891682610abb565b8355505b6001600288020188555050505b505050505050565b610bca8161062f565b82525050565b5f602082019050610be35f830184610bc1565b92915050565b5f82825260208201905092915050565b7f4554463a20456d70747920746f6b656e730000000000000000000000000000005f82015250565b5f610c2d601183610be9565b9150610c3882610bf9565b602082019050919050565b5f6020820190508181035f830152610c5a81610c21565b9050919050565b7f4554463a206c656e677468206d69736d617463680000000000000000000000005f82015250565b5f610c95601483610be9565b9150610ca082610c61565b602082019050919050565b5f6020820190508181035f830152610cc281610c89565b9050919050565b7f4e487b71000000000000000000000000000000000000000000000000000000005f52603260045260245ffd5b7f4554463a205a65726f206164647265737320746f6b656e0000000000000000005f82015250565b5f610d2a601783610be9565b9150610d3582610cf6565b602082019050919050565b5f6020820190508181035f830152610d5781610d1e565b9050919050565b608051613833610d925f395f8181610b4c01528181610cf9015281816112a601528181611328015261161701526138335ff3fe6080604052600436106101d0575f3560e01c806378a89567116100f6578063c31c9c0711610094578063d73792a911610063578063d73792a91461066f578063dd62ed3e14610699578063e4b50cb8146106d5578063f2fde38b14610711576101d7565b8063c31c9c07146105b5578063c622cd83146105df578063c6d98f1a14610609578063ce7ddbef14610633576101d7565b8063a0398af3116100d0578063a0398af3146104ff578063a553618b14610527578063a9059cbb1461054f578063aa6ca8081461058b576101d7565b806378a89567146104815780638da5cb5b146104ab57806395d89b41146104d5576101d7565b806322b1c0271161016e57806350ea39001161013d57806350ea3900146103dd5780636dd84ac11461040757806370a082311461042f578063715018a61461046b576101d7565b806322b1c0271461032557806323b872dd1461034d578063313ce567146103895780634c203786146103b3576101d7565b806306fdde03116101aa57806306fdde031461026b578063095ea7b31461029557806318160ddd146102d15780631edb146b146102fb576101d7565b8063017e7e58146101db578063030eb84d1461020557806305def3471461022f576101d7565b366101d757005b5f5ffd5b3480156101e6575f5ffd5b506101ef610739565b6040516101fc91906129f9565b60405180910390f35b348015610210575f5ffd5b50610219610761565b6040516102269190612a2f565b60405180910390f35b34801561023a575f5ffd5b5061025560048036038101906102509190612a8c565b610768565b6040516102629190612b6e565b60405180910390f35b348015610276575f5ffd5b5061027f61093c565b60405161028c9190612bfe565b60405180910390f35b3480156102a0575f5ffd5b506102bb60048036038101906102b69190612c48565b6109cc565b6040516102c89190612ca0565b60405180910390f35b3480156102dc575f5ffd5b506102e56109ee565b6040516102f29190612cc8565b60405180910390f35b348015610306575f5ffd5b5061030f6109f7565b60405161031c9190612a2f565b60405180910390f35b348015610330575f5ffd5b5061034b60048036038101906103469190612eef565b610a0f565b005b348015610358575f5ffd5b50610373600480360381019061036e9190612f82565b610ed7565b6040516103809190612ca0565b60405180910390f35b348015610394575f5ffd5b5061039d610f05565b6040516103aa9190612fed565b60405180910390f35b3480156103be575f5ffd5b506103c7610f0d565b6040516103d49190612cc8565b60405180910390f35b3480156103e8575f5ffd5b506103f1610f13565b6040516103fe9190612cc8565b60405180910390f35b348015610412575f5ffd5b5061042d60048036038101906104289190612a8c565b610f1c565b005b34801561043a575f5ffd5b5061045560048036038101906104509190613006565b610f26565b6040516104629190612cc8565b60405180910390f35b348015610476575f5ffd5b5061047f610f6b565b005b34801561048c575f5ffd5b50610495610f7e565b6040516104a29190612cc8565b60405180910390f35b3480156104b6575f5ffd5b506104bf610f8a565b6040516104cc91906129f9565b60405180910390f35b3480156104e0575f5ffd5b506104e9610fb2565b6040516104f69190612bfe565b60405180910390f35b34801561050a575f5ffd5b5061052560048036038101906105209190612eef565b611042565b005b348015610532575f5ffd5b5061054d6004803603810190610548919061305b565b6114dd565b005b34801561055a575f5ffd5b5061057560048036038101906105709190612c48565b611568565b6040516105829190612ca0565b60405180910390f35b348015610596575f5ffd5b5061059f61158a565b6040516105ac9190613162565b60405180910390f35b3480156105c0575f5ffd5b506105c9611615565b6040516105d691906129f9565b60405180910390f35b3480156105ea575f5ffd5b506105f3611639565b6040516106009190612a2f565b60405180910390f35b348015610614575f5ffd5b5061061d61163f565b60405161062a9190612a2f565b60405180910390f35b34801561063e575f5ffd5b5061065960048036038101906106549190612a8c565b611657565b6040516106669190612b6e565b60405180910390f35b34801561067a575f5ffd5b5061068361182b565b6040516106909190612a2f565b60405180910390f35b3480156106a4575f5ffd5b506106bf60048036038101906106ba9190613182565b611832565b6040516106cc9190612cc8565b60405180910390f35b3480156106e0575f5ffd5b506106fb60048036038101906106f69190612a8c565b6118b4565b60405161070891906129f9565b60405180910390f35b34801561071c575f5ffd5b5061073760048036038101906107329190613006565b61193f565b005b5f60065f9054906101000a900473ffffffffffffffffffffffffffffffffffffffff16905090565b620f424081565b60605f6107736109ee565b905060088054905067ffffffffffffffff81111561079457610793612ce5565b5b6040519080825280602002602001820160405280156107c25781602001602082028036833780820191505090505b5091505f5f90505b600880549050811015610935575f8211156108cf575f600882815481106107f4576107f36131c0565b5b905f5260205f20015f9054906101000a900473ffffffffffffffffffffffffffffffffffffffff1673ffffffffffffffffffffffffffffffffffffffff166370a08231306040518263ffffffff1660e01b815260040161085491906129f9565b602060405180830381865afa15801561086f573d5f5f3e3d5ffd5b505050506040513d601f19601f820116820180604052508101906108939190613201565b90506108aa8584836119c39092919063ffffffff16565b8483815181106108bd576108bc6131c0565b5b60200260200101818152505050610928565b610908600a82815481106108e6576108e56131c0565b5b905f5260205f200154670de0b6b3a7640000866119c39092919063ffffffff16565b83828151811061091b5761091a6131c0565b5b6020026020010181815250505b80806001019150506107ca565b5050919050565b60606003805461094b90613259565b80601f016020809104026020016040519081016040528092919081815260200182805461097790613259565b80156109c25780601f10610999576101008083540402835291602001916109c2565b820191905f5260205f20905b8154815290600101906020018083116109a557829003601f168201915b5050505050905090565b5f5f6109d6611a2b565b90506109e3818585611a32565b600191505092915050565b5f600254905090565b5f600660149054906101000a900462ffffff16905090565b5f3073ffffffffffffffffffffffffffffffffffffffff1663aa6ca8086040518163ffffffff1660e01b81526004015f60405180830381865afa158015610a58573d5f5f3e3d5ffd5b505050506040513d5f823e3d601f19601f82011682018060405250810190610a80919061335d565b90508151815114610abd576040517f9d89020a00000000000000000000000000000000000000000000000000000000815260040160405180910390fd5b5f610ac785610768565b90508673ffffffffffffffffffffffffffffffffffffffff166323b872dd3330876040518463ffffffff1660e01b8152600401610b06939291906133a4565b6020604051808303815f875af1158015610b22573d5f5f3e3d5ffd5b505050506040513d601f19601f82011682018060405250810190610b469190613403565b50610bb27f00000000000000000000000000000000000000000000000000000000000000007fffffffffffffffffffffffffffffffffffffffffffffffffffffffffffffffff8973ffffffffffffffffffffffffffffffffffffffff16611a449092919063ffffffff16565b5f5f5f90505b8351811015610e35575f838281518110610bd557610bd46131c0565b5b60200260200101510315610e28578873ffffffffffffffffffffffffffffffffffffffff16848281518110610c0d57610c0c6131c0565b5b602002602001015173ffffffffffffffffffffffffffffffffffffffff1603610c5d57828181518110610c4357610c426131c0565b5b602002602001015182610c56919061345b565b9150610e28565b610c9c89858381518110610c7457610c736131c0565b5b6020026020010151878481518110610c8f57610c8e6131c0565b5b6020026020010151611af6565b610cf757848181518110610cb357610cb26131c0565b5b60200260200101516040517f5c379223000000000000000000000000000000000000000000000000000000008152600401610cee91906134e0565b60405180910390fd5b7f000000000000000000000000000000000000000000000000000000000000000073ffffffffffffffffffffffffffffffffffffffff166309b813466040518060800160405280888581518110610d5157610d506131c0565b5b602002602001015181526020013073ffffffffffffffffffffffffffffffffffffffff168152602001868581518110610d8d57610d8c6131c0565b5b602002602001015181526020017fffffffffffffffffffffffffffffffffffffffffffffffffffffffffffffffff8152506040518263ffffffff1660e01b8152600401610dda91906135a8565b6020604051808303815f875af1158015610df6573d5f5f3e3d5ffd5b505050506040513d601f19601f82011682018060405250810190610e1a9190613201565b82610e25919061345b565b91505b8080600101915050610bb8565b505f8186610e4391906135c8565b9050610e7033828b73ffffffffffffffffffffffffffffffffffffffff16611b979092919063ffffffff16565b610e7a8888611bea565b8873ffffffffffffffffffffffffffffffffffffffff167fd58b185d00630065159db1d6df5fea816128b29100ce9dbc56dd6508e380aa9d898985604051610ec4939291906135fb565b60405180910390a2505050505050505050565b5f5f610ee1611a2b565b9050610eee858285611cd1565b610ef9858585611d64565b60019150509392505050565b5f6012905090565b61c35081565b5f600754905090565b8060078190555050565b5f5f5f8373ffffffffffffffffffffffffffffffffffffffff1673ffffffffffffffffffffffffffffffffffffffff1681526020019081526020015f20549050919050565b610f73611e54565b610f7c5f611edb565b565b5f600880549050905090565b5f60055f9054906101000a900473ffffffffffffffffffffffffffffffffffffffff16905090565b606060048054610fc190613259565b80601f0160208091040260200160405190810160405280929190818152602001828054610fed90613259565b80156110385780601f1061100f57610100808354040283529160200191611038565b820191905f5260205f20905b81548152906001019060200180831161101b57829003601f168201915b5050505050905090565b5f3073ffffffffffffffffffffffffffffffffffffffff1663aa6ca8086040518163ffffffff1660e01b81526004015f60405180830381865afa15801561108b573d5f5f3e3d5ffd5b505050506040513d5f823e3d601f19601f820116820180604052508101906110b3919061335d565b905081518151146110f0576040517f9d89020a00000000000000000000000000000000000000000000000000000000815260040160405180910390fd5b5f6110fb3086611f9e565b90505f5f5f90505b8351811015611446575f8382815181106111205761111f6131c0565b5b602002602001015103156114395761116d89858381518110611145576111446131c0565b5b60200260200101518784815181106111605761115f6131c0565b5b6020026020010151611af6565b6111c857848181518110611184576111836131c0565b5b60200260200101516040517f5c3792230000000000000000000000000000000000000000000000000000000081526004016111bf91906134e0565b60405180910390fd5b8873ffffffffffffffffffffffffffffffffffffffff168482815181106111f2576111f16131c0565b5b602002602001015173ffffffffffffffffffffffffffffffffffffffff16036112a1576112748884838151811061122c5761122b6131c0565b5b6020026020010151868481518110611247576112466131c0565b5b602002602001015173ffffffffffffffffffffffffffffffffffffffff16611b979092919063ffffffff16565b828181518110611287576112866131c0565b5b60200260200101518261129a919061345b565b9150611438565b6113267f00000000000000000000000000000000000000000000000000000000000000007fffffffffffffffffffffffffffffffffffffffffffffffffffffffffffffffff8684815181106112f9576112f86131c0565b5b602002602001015173ffffffffffffffffffffffffffffffffffffffff16611a449092919063ffffffff16565b7f000000000000000000000000000000000000000000000000000000000000000073ffffffffffffffffffffffffffffffffffffffff1663b858183f60405180608001604052808885815181106113805761137f6131c0565b5b602002602001015181526020018b73ffffffffffffffffffffffffffffffffffffffff1681526020018685815181106113bc576113bb6131c0565b5b6020026020010151815260200160018152506040518263ffffffff1660e01b81526004016113ea9190613690565b6020604051808303815f875af1158015611406573d5f5f3e3d5ffd5b505050506040513d601f19601f8201168201806040525081019061142a9190613201565b82611435919061345b565b91505b5b8080600101915050611103565b5084811015611481576040517f93bce7b300000000000000000000000000000000000000000000000000000000815260040160405180910390fd5b8773ffffffffffffffffffffffffffffffffffffffff167f19b500572e111e1efaa6d79e923346af4412022ba47520af0af63701618fa7388888846040516114cb939291906135fb565b60405180910390a25050505050505050565b6114e5611e54565b8260065f6101000a81548173ffffffffffffffffffffffffffffffffffffffff021916908373ffffffffffffffffffffffffffffffffffffffff16021790555081600660146101000a81548162ffffff021916908362ffffff16021790555080600660176101000a81548162ffffff021916908362ffffff160217905550505050565b5f5f611572611a2b565b905061157f818585611d64565b600191505092915050565b6060600880548060200260200160405190810160405280929190818152602001828054801561160b57602002820191905f5260205f20905b815f9054906101000a900473ffffffffffffffffffffffffffffffffffffffff1673ffffffffffffffffffffffffffffffffffffffff16815260200190600101908083116115c2575b5050505050905090565b7f000000000000000000000000000000000000000000000000000000000000000081565b610bb881565b5f600660179054906101000a900462ffffff16905090565b60605f600660179054906101000a900462ffffff1662ffffff1611156116bf575f620f424062ffffff16600660179054906101000a900462ffffff1662ffffff16846116a391906136b0565b6116ad919061371e565b905080836116bb91906135c8565b9250505b5f6116c86109ee565b905060088054905067ffffffffffffffff8111156116e9576116e8612ce5565b5b6040519080825280602002602001820160405280156117175781602001602082028036833780820191505090505b5091505f5f90505b600880549050811015611824575f60088281548110611741576117406131c0565b5b905f5260205f20015f9054906101000a900473ffffffffffffffffffffffffffffffffffffffff1673ffffffffffffffffffffffffffffffffffffffff166370a08231306040518263ffffffff1660e01b81526004016117a191906129f9565b602060405180830381865afa1580156117bc573d5f5f3e3d5ffd5b505050506040513d601f19601f820116820180604052508101906117e09190613201565b90506117f78584836122859092919063ffffffff16565b84838151811061180a576118096131c0565b5b60200260200101818152505050808060010191505061171f565b5050919050565b620f424081565b5f60015f8473ffffffffffffffffffffffffffffffffffffffff1673ffffffffffffffffffffffffffffffffffffffff1681526020019081526020015f205f8373ffffffffffffffffffffffffffffffffffffffff1673ffffffffffffffffffffffffffffffffffffffff1681526020019081526020015f2054905092915050565b5f60088054905082106118fc576040517f08c379a00000000000000000000000000000000000000000000000000000000081526004016118f390613798565b60405180910390fd5b600882815481106119105761190f6131c0565b5b905f5260205f20015f9054906101000a900473ffffffffffffffffffffffffffffffffffffffff169050919050565b611947611e54565b5f73ffffffffffffffffffffffffffffffffffffffff168173ffffffffffffffffffffffffffffffffffffffff16036119b7575f6040517f1e4fbdf70000000000000000000000000000000000000000000000000000000081526004016119ae91906129f9565b60405180910390fd5b6119c081611edb565b50565b5f6119cf848484612285565b90505f82806119e1576119e06136f1565b5b8486091115611a24577fffffffffffffffffffffffffffffffffffffffffffffffffffffffffffffffff8110611a15575f5ffd5b8080611a20906137b6565b9150505b9392505050565b5f33905090565b611a3f8383836001612410565b505050565b611a508383835f6125df565b611af157611a6183835f60016125df565b611aa257826040517f5274afe7000000000000000000000000000000000000000000000000000000008152600401611a9991906129f9565b60405180910390fd5b611aaf83838360016125df565b611af057826040517f5274afe7000000000000000000000000000000000000000000000000000000008152600401611ae791906129f9565b60405180910390fd5b5b505050565b5f602b82511015611b09575f9050611b90565b5f5f602084015160601c9150601484510360208501015160601c90508473ffffffffffffffffffffffffffffffffffffffff168273ffffffffffffffffffffffffffffffffffffffff16148015611b8b57508573ffffffffffffffffffffffffffffffffffffffff168173ffffffffffffffffffffffffffffffffffffffff16145b925050505b9392505050565b611ba48383836001612641565b611be557826040517f5274afe7000000000000000000000000000000000000000000000000000000008152600401611bdc91906129f9565b60405180910390fd5b505050565b600754811015611c26576040517fdb49828e00000000000000000000000000000000000000000000000000000000815260040160405180910390fd5b5f5f600660149054906101000a900462ffffff1662ffffff161115611cc157620f424062ffffff16600660149054906101000a900462ffffff1662ffffff1683611c7091906136b0565b611c7a919061371e565b9050611ca760065f9054906101000a900473ffffffffffffffffffffffffffffffffffffffff16826126a3565b611cbc838284611cb791906135c8565b6126a3565b611ccc565b611ccb83836126a3565b5b505050565b5f611cdc8484611832565b90507fffffffffffffffffffffffffffffffffffffffffffffffffffffffffffffffff811015611d5e5781811015611d4f578281836040517ffb8f41b2000000000000000000000000000000000000000000000000000000008152600401611d46939291906135fb565b60405180910390fd5b611d5d84848484035f612410565b5b50505050565b5f73ffffffffffffffffffffffffffffffffffffffff168373ffffffffffffffffffffffffffffffffffffffff1603611dd4575f6040517f96c6fd1e000000000000000000000000000000000000000000000000000000008152600401611dcb91906129f9565b60405180910390fd5b5f73ffffffffffffffffffffffffffffffffffffffff168273ffffffffffffffffffffffffffffffffffffffff1603611e44575f6040517fec442f05000000000000000000000000000000000000000000000000000000008152600401611e3b91906129f9565b60405180910390fd5b611e4f838383612722565b505050565b611e5c611a2b565b73ffffffffffffffffffffffffffffffffffffffff16611e7a610f8a565b73ffffffffffffffffffffffffffffffffffffffff1614611ed957611e9d611a2b565b6040517f118cdaa7000000000000000000000000000000000000000000000000000000008152600401611ed091906129f9565b60405180910390fd5b565b5f60055f9054906101000a900473ffffffffffffffffffffffffffffffffffffffff1690508160055f6101000a81548173ffffffffffffffffffffffffffffffffffffffff021916908373ffffffffffffffffffffffffffffffffffffffff1602179055508173ffffffffffffffffffffffffffffffffffffffff168173ffffffffffffffffffffffffffffffffffffffff167f8be0079c531659141344cd1fd0a4f28419497f9722a3daafe3b4186f6b6457e060405160405180910390a35050565b60605f611fa96109ee565b905060088054905067ffffffffffffffff811115611fca57611fc9612ce5565b5b604051908082528060200260200182016040528015611ff85781602001602082028036833780820191505090505b509150612005338461293b565b5f5f600660179054906101000a900462ffffff1662ffffff16111561208757620f424062ffffff16600660179054906101000a900462ffffff1662ffffff168561204f91906136b0565b612059919061371e565b905061208660065f9054906101000a900473ffffffffffffffffffffffffffffffffffffffff16826126a3565b5b5f818561209491906135c8565b90505f5f90505b60088054905081101561227b575f600882815481106120bd576120bc6131c0565b5b905f5260205f20015f9054906101000a900473ffffffffffffffffffffffffffffffffffffffff1673ffffffffffffffffffffffffffffffffffffffff166370a08231306040518263ffffffff1660e01b815260040161211d91906129f9565b602060405180830381865afa158015612138573d5f5f3e3d5ffd5b505050506040513d601f19601f8201168201806040525081019061215c9190613201565b90506121738386836122859092919063ffffffff16565b868381518110612186576121856131c0565b5b6020026020010181815250503073ffffffffffffffffffffffffffffffffffffffff168873ffffffffffffffffffffffffffffffffffffffff16141580156121e757505f8683815181106121dd576121dc6131c0565b5b6020026020010151115b1561226d5761226c88878481518110612203576122026131c0565b5b60200260200101516008858154811061221f5761221e6131c0565b5b905f5260205f20015f9054906101000a900473ffffffffffffffffffffffffffffffffffffffff1673ffffffffffffffffffffffffffffffffffffffff16611b979092919063ffffffff16565b5b50808060010191505061209b565b5050505092915050565b5f5f5f5f198587098587029250828110838203039150505f81036122ba575f84116122ae575f5ffd5b83820492505050612409565b8084116122c5575f5ffd5b5f8486880990508281118203915080830392505f855f038616905080860495508084049350600181825f0304019050808361230091906136b0565b841793505f600287600361231491906136b0565b189050808761232391906136b0565b600261232f91906135c8565b8161233a91906136b0565b9050808761234891906136b0565b600261235491906135c8565b8161235f91906136b0565b9050808761236d91906136b0565b600261237991906135c8565b8161238491906136b0565b9050808761239291906136b0565b600261239e91906135c8565b816123a991906136b0565b905080876123b791906136b0565b60026123c391906135c8565b816123ce91906136b0565b905080876123dc91906136b0565b60026123e891906135c8565b816123f391906136b0565b9050808561240191906136b0565b955050505050505b9392505050565b5f73ffffffffffffffffffffffffffffffffffffffff168473ffffffffffffffffffffffffffffffffffffffff1603612480575f6040517fe602df0500000000000000000000000000000000000000000000000000000000815260040161247791906129f9565b60405180910390fd5b5f73ffffffffffffffffffffffffffffffffffffffff168373ffffffffffffffffffffffffffffffffffffffff16036124f0575f6040517f94280d620000000000000000000000000000000000000000000000000000000081526004016124e791906129f9565b60405180910390fd5b8160015f8673ffffffffffffffffffffffffffffffffffffffff1673ffffffffffffffffffffffffffffffffffffffff1681526020019081526020015f205f8573ffffffffffffffffffffffffffffffffffffffff1673ffffffffffffffffffffffffffffffffffffffff1681526020019081526020015f208190555080156125d9578273ffffffffffffffffffffffffffffffffffffffff168473ffffffffffffffffffffffffffffffffffffffff167f8c5be1e5ebec7d5bd14f71427d1e84f3dd0314c0f7b2291e5b200ac8c7c3b925846040516125d09190612cc8565b60405180910390a35b50505050565b5f5f63095ea7b360e01b9050604051815f525f1960601c86166004528460245260205f60445f5f8b5af1925060015f51148316612633578383151615612627573d5f823e3d81fd5b5f873b113d1516831692505b806040525050949350505050565b5f5f63a9059cbb60e01b9050604051815f525f1960601c86166004528460245260205f60445f5f8b5af1925060015f51148316612695578383151615612689573d5f823e3d81fd5b5f873b113d1516831692505b806040525050949350505050565b5f73ffffffffffffffffffffffffffffffffffffffff168273ffffffffffffffffffffffffffffffffffffffff1603612713575f6040517fec442f0500000000000000000000000000000000000000000000000000000000815260040161270a91906129f9565b60405180910390fd5b61271e5f8383612722565b5050565b5f73ffffffffffffffffffffffffffffffffffffffff168373ffffffffffffffffffffffffffffffffffffffff1603612772578060025f828254612766919061345b565b92505081905550612840565b5f5f5f8573ffffffffffffffffffffffffffffffffffffffff1673ffffffffffffffffffffffffffffffffffffffff1681526020019081526020015f20549050818110156127fb578381836040517fe450d38c0000000000000000000000000000000000000000000000000000000081526004016127f2939291906135fb565b60405180910390fd5b8181035f5f8673ffffffffffffffffffffffffffffffffffffffff1673ffffffffffffffffffffffffffffffffffffffff1681526020019081526020015f2081905550505b5f73ffffffffffffffffffffffffffffffffffffffff168273ffffffffffffffffffffffffffffffffffffffff1603612887578060025f82825403925050819055506128d1565b805f5f8473ffffffffffffffffffffffffffffffffffffffff1673ffffffffffffffffffffffffffffffffffffffff1681526020019081526020015f205f82825401925050819055505b8173ffffffffffffffffffffffffffffffffffffffff168373ffffffffffffffffffffffffffffffffffffffff167fddf252ad1be2c89b69c2b068fc378daa952ba7f163c4a11628f55a4df523b3ef8360405161292e9190612cc8565b60405180910390a3505050565b5f73ffffffffffffffffffffffffffffffffffffffff168273ffffffffffffffffffffffffffffffffffffffff16036129ab575f6040517f96c6fd1e0000000000000000000000000000000000000000000000000000000081526004016129a291906129f9565b60405180910390fd5b6129b6825f83612722565b5050565b5f73ffffffffffffffffffffffffffffffffffffffff82169050919050565b5f6129e3826129ba565b9050919050565b6129f3816129d9565b82525050565b5f602082019050612a0c5f8301846129ea565b92915050565b5f62ffffff82169050919050565b612a2981612a12565b82525050565b5f602082019050612a425f830184612a20565b92915050565b5f604051905090565b5f5ffd5b5f5ffd5b5f819050919050565b612a6b81612a59565b8114612a75575f5ffd5b50565b5f81359050612a8681612a62565b92915050565b5f60208284031215612aa157612aa0612a51565b5b5f612aae84828501612a78565b91505092915050565b5f81519050919050565b5f82825260208201905092915050565b5f819050602082019050919050565b612ae981612a59565b82525050565b5f612afa8383612ae0565b60208301905092915050565b5f602082019050919050565b5f612b1c82612ab7565b612b268185612ac1565b9350612b3183612ad1565b805f5b83811015612b61578151612b488882612aef565b9750612b5383612b06565b925050600181019050612b34565b5085935050505092915050565b5f6020820190508181035f830152612b868184612b12565b905092915050565b5f81519050919050565b5f82825260208201905092915050565b8281835e5f83830152505050565b5f601f19601f8301169050919050565b5f612bd082612b8e565b612bda8185612b98565b9350612bea818560208601612ba8565b612bf381612bb6565b840191505092915050565b5f6020820190508181035f830152612c168184612bc6565b905092915050565b612c27816129d9565b8114612c31575f5ffd5b50565b5f81359050612c4281612c1e565b92915050565b5f5f60408385031215612c5e57612c5d612a51565b5b5f612c6b85828601612c34565b9250506020612c7c85828601612a78565b9150509250929050565b5f8115159050919050565b612c9a81612c86565b82525050565b5f602082019050612cb35f830184612c91565b92915050565b612cc281612a59565b82525050565b5f602082019050612cdb5f830184612cb9565b92915050565b5f5ffd5b7f4e487b71000000000000000000000000000000000000000000000000000000005f52604160045260245ffd5b612d1b82612bb6565b810181811067ffffffffffffffff82111715612d3a57612d39612ce5565b5b80604052505050565b5f612d4c612a48565b9050612d588282612d12565b919050565b5f67ffffffffffffffff821115612d7757612d76612ce5565b5b602082029050602081019050919050565b5f5ffd5b5f5ffd5b5f67ffffffffffffffff821115612daa57612da9612ce5565b5b612db382612bb6565b9050602081019050919050565b828183375f83830152505050565b5f612de0612ddb84612d90565b612d43565b905082815260208101848484011115612dfc57612dfb612d8c565b5b612e07848285612dc0565b509392505050565b5f82601f830112612e2357612e22612ce1565b5b8135612e33848260208601612dce565b91505092915050565b5f612e4e612e4984612d5d565b612d43565b90508083825260208201905060208402830185811115612e7157612e70612d88565b5b835b81811015612eb857803567ffffffffffffffff811115612e9657612e95612ce1565b5b808601612ea38982612e0f565b85526020850194505050602081019050612e73565b5050509392505050565b5f82601f830112612ed657612ed5612ce1565b5b8135612ee6848260208601612e3c565b91505092915050565b5f5f5f5f5f60a08688031215612f0857612f07612a51565b5b5f612f1588828901612c34565b9550506020612f2688828901612c34565b9450506040612f3788828901612a78565b9350506060612f4888828901612a78565b925050608086013567ffffffffffffffff811115612f6957612f68612a55565b5b612f7588828901612ec2565b9150509295509295909350565b5f5f5f60608486031215612f9957612f98612a51565b5b5f612fa686828701612c34565b9350506020612fb786828701612c34565b9250506040612fc886828701612a78565b9150509250925092565b5f60ff82169050919050565b612fe781612fd2565b82525050565b5f6020820190506130005f830184612fde565b92915050565b5f6020828403121561301b5761301a612a51565b5b5f61302884828501612c34565b91505092915050565b61303a81612a12565b8114613044575f5ffd5b50565b5f8135905061305581613031565b92915050565b5f5f5f6060848603121561307257613071612a51565b5b5f61307f86828701612c34565b935050602061309086828701613047565b92505060406130a186828701613047565b9150509250925092565b5f81519050919050565b5f82825260208201905092915050565b5f819050602082019050919050565b6130dd816129d9565b82525050565b5f6130ee83836130d4565b60208301905092915050565b5f602082019050919050565b5f613110826130ab565b61311a81856130b5565b9350613125836130c5565b805f5b8381101561315557815161313c88826130e3565b9750613147836130fa565b925050600181019050613128565b5085935050505092915050565b5f6020820190508181035f83015261317a8184613106565b905092915050565b5f5f6040838503121561319857613197612a51565b5b5f6131a585828601612c34565b92505060206131b685828601612c34565b9150509250929050565b7f4e487b71000000000000000000000000000000000000000000000000000000005f52603260045260245ffd5b5f815190506131fb81612a62565b92915050565b5f6020828403121561321657613215612a51565b5b5f613223848285016131ed565b91505092915050565b7f4e487b71000000000000000000000000000000000000000000000000000000005f52602260045260245ffd5b5f600282049050600182168061327057607f821691505b6020821081036132835761328261322c565b5b50919050565b5f67ffffffffffffffff8211156132a3576132a2612ce5565b5b602082029050602081019050919050565b5f815190506132c281612c1e565b92915050565b5f6132da6132d584613289565b612d43565b905080838252602082019050602084028301858111156132fd576132fc612d88565b5b835b81811015613326578061331288826132b4565b8452602084019350506020810190506132ff565b5050509392505050565b5f82601f83011261334457613343612ce1565b5b81516133548482602086016132c8565b91505092915050565b5f6020828403121561337257613371612a51565b5b5f82015167ffffffffffffffff81111561338f5761338e612a55565b5b61339b84828501613330565b91505092915050565b5f6060820190506133b75f8301866129ea565b6133c460208301856129ea565b6133d16040830184612cb9565b949350505050565b6133e281612c86565b81146133ec575f5ffd5b50565b5f815190506133fd816133d9565b92915050565b5f6020828403121561341857613417612a51565b5b5f613425848285016133ef565b91505092915050565b7f4e487b71000000000000000000000000000000000000000000000000000000005f52601160045260245ffd5b5f61346582612a59565b915061347083612a59565b92508282019050808211156134885761348761342e565b5b92915050565b5f81519050919050565b5f82825260208201905092915050565b5f6134b28261348e565b6134bc8185613498565b93506134cc818560208601612ba8565b6134d581612bb6565b840191505092915050565b5f6020820190508181035f8301526134f881846134a8565b905092915050565b5f82825260208201905092915050565b5f61351a8261348e565b6135248185613500565b9350613534818560208601612ba8565b61353d81612bb6565b840191505092915050565b5f608083015f8301518482035f8601526135628282613510565b915050602083015161357760208601826130d4565b50604083015161358a6040860182612ae0565b50606083015161359d6060860182612ae0565b508091505092915050565b5f6020820190508181035f8301526135c08184613548565b905092915050565b5f6135d282612a59565b91506135dd83612a59565b92508282039050818111156135f5576135f461342e565b5b92915050565b5f60608201905061360e5f8301866129ea565b61361b6020830185612cb9565b6136286040830184612cb9565b949350505050565b5f608083015f8301518482035f86015261364a8282613510565b915050602083015161365f60208601826130d4565b5060408301516136726040860182612ae0565b5060608301516136856060860182612ae0565b508091505092915050565b5f6020820190508181035f8301526136a88184613630565b905092915050565b5f6136ba82612a59565b91506136c583612a59565b92508282026136d381612a59565b915082820484148315176136ea576136e961342e565b5b5092915050565b7f4e487b71000000000000000000000000000000000000000000000000000000005f52601260045260245ffd5b5f61372882612a59565b915061373383612a59565b925082613743576137426136f1565b5b828204905092915050565b7f4554463a20496e646578206f7574206f662072616e67650000000000000000005f82015250565b5f613782601783612b98565b915061378d8261374e565b602082019050919050565b5f6020820190508181035f8301526137af81613776565b9050919050565b5f6137c082612a59565b91507fffffffffffffffffffffffffffffffffffffffffffffffffffffffffffffffff82036137f2576137f161342e565b5b60018201905091905056fea26469706673582212206cc673721ae04125f018a5e1f92aa85a8d1c0c7f67069a0f9b12192da463596064736f6c634300081e0033",
        "linkReferences": {}
    },
    "methodIdentifiers": {
        "DEFAULT_POOL_FEE()": "c622cd83",
        "FEE_DENOMINATOR()": "d73792a9",
        "HUNDREd_PERCENT()": "030eb84d",
        "SLIPPAGE_TOLERANCE()": "4c203786",
        "allowance(address,address)": "dd62ed3e",
        "approve(address,uint256)": "095ea7b3",
        "balanceOf(address)": "70a08231",
        "decimals()": "313ce567",
        "feeTo()": "017e7e58",
        "getInvestFee()": "1edb146b",
        "getInvestTokenAmounts(uint256)": "05def347",
        "getMinMintAmount()": "50ea3900",
        "getRedeemFee()": "c6d98f1a",
        "getRedeemTokenAmounts(uint256)": "ce7ddbef",
        "getToken(uint256)": "e4b50cb8",
        "getTokenCount()": "78a89567",
        "getTokens()": "aa6ca808",
        "investWithToken(address,address,uint256,uint256,bytes[])": "22b1c027",
        "name()": "06fdde03",
        "owner()": "8da5cb5b",
        "redeemToToken(address,address,uint256,uint256,bytes[])": "a0398af3",
        "renounceOwnership()": "715018a6",
        "setFee(address,uint24,uint24)": "a553618b",
        "swapRouter()": "c31c9c07",
        "symbol()": "95d89b41",
        "totalSupply()": "18160ddd",
        "transfer(address,uint256)": "a9059cbb",
        "transferFrom(address,address,uint256)": "23b872dd",
        "transferOwnership(address)": "f2fde38b",
        "updateMinMintAmount(uint256)": "6dd84ac1"
    },
    "id": 38
}